{
  "transactions": [
    {
      "hash": "0x2af5ba1c9b7aec472c78a063e01d9ae2b35b2dc0abc8377996ba808349cba842",
      "transactionType": "CALL",
      "contractName": null,
      "contractAddress": "0x577e289f663a4e29c231135c09d6a0713ce7aaff",
      "function": "deposit(uint256,address)",
      "arguments": [
        "1000000",
        "0x03011a306Cbd22c9E640D3456E8209DE8aB02Eef"
      ],
      "transaction": {
        "from": "0xe32bfe0922d38007b47e08c8b89b1ada8e4d03fb",
        "to": "0x577e289f663a4e29c231135c09d6a0713ce7aaff",
        "gas": "0x4070d",
        "value": "0x0",
        "input": "0x6e553f6500000000000000000000000000000000000000000000000000000000000f424000000000000000000000000003011a306cbd22c9e640d3456e8209de8ab02eef",
        "nonce": "0x79",
        "chainId": "0xa4b1"
      },
      "additionalContracts": [],
      "isFixedGasLimit": false
    },
    {
      "hash": "0xc7c815e3b8d4f5682da87953e5a9adde0401f0aeac16bab4477b9847e39ef4d0",
      "transactionType": "CALL",
      "contractName": null,
      "contractAddress": "0xf67f9b1042a7f419c2c0259c983fb1f75f981fd4",
      "function": "deposit(uint256,address)",
      "arguments": [
        "1000000000000000000",
        "0x03011a306Cbd22c9E640D3456E8209DE8aB02Eef"
      ],
      "transaction": {
        "from": "0xe32bfe0922d38007b47e08c8b89b1ada8e4d03fb",
        "to": "0xf67f9b1042a7f419c2c0259c983fb1f75f981fd4",
        "gas": "0x38371",
        "value": "0x0",
        "input": "0x6e553f650000000000000000000000000000000000000000000000000de0b6b3a764000000000000000000000000000003011a306cbd22c9e640d3456e8209de8ab02eef",
        "nonce": "0x7a",
        "chainId": "0xa4b1"
      },
      "additionalContracts": [],
      "isFixedGasLimit": false
    }
  ],
  "receipts": [
    {
      "status": "0x1",
      "cumulativeGasUsed": "0x2c87d",
      "logs": [
        {
          "address": "0xe45ee4046bd755330d555dfe4ada7839a3eeb926",
          "topics": [
            "0x6e9738e5aa38fe1517adbb480351ec386ece82947737b18badbcad1e911133ec",
            "0x000000000000000000000000577e289f663a4e29c231135c09d6a0713ce7aaff",
            "0xe32bfe0922d38007b47e08c8b89b1ada8e4d0300000000000000000000000000",
            "0x000000000000000000000000577e289f663a4e29c231135c09d6a0713ce7aaff"
          ],
          "data": "0x000000000000000000000000e32bfe0922d38007b47e08c8b89b1ada8e4d03fb6e553f6500000000000000000000000000000000000000000000000000000000",
          "blockHash": "0xc696406b77a674208366d55fd072e2653248e67c92bb06694306f3c33530709d",
          "blockNumber": "0xe5398d4",
          "transactionHash": "0x2af5ba1c9b7aec472c78a063e01d9ae2b35b2dc0abc8377996ba808349cba842",
          "transactionIndex": "0x1",
          "logIndex": "0x0",
          "removed": false
        },
        {
          "address": "0xaf88d065e77c8cc2239327c5edb3a432268e5831",
          "topics": [
            "0xddf252ad1be2c89b69c2b068fc378daa952ba7f163c4a11628f55a4df523b3ef",
            "0x000000000000000000000000e32bfe0922d38007b47e08c8b89b1ada8e4d03fb",
            "0x000000000000000000000000577e289f663a4e29c231135c09d6a0713ce7aaff"
          ],
          "data": "0x00000000000000000000000000000000000000000000000000000000000f4240",
          "blockHash": "0xc696406b77a674208366d55fd072e2653248e67c92bb06694306f3c33530709d",
          "blockNumber": "0xe5398d4",
          "transactionHash": "0x2af5ba1c9b7aec472c78a063e01d9ae2b35b2dc0abc8377996ba808349cba842",
          "transactionIndex": "0x1",
          "logIndex": "0x1",
          "removed": false
        },
        {
          "address": "0x577e289f663a4e29c231135c09d6a0713ce7aaff",
          "topics": [
            "0xddf252ad1be2c89b69c2b068fc378daa952ba7f163c4a11628f55a4df523b3ef",
            "0x0000000000000000000000000000000000000000000000000000000000000000",
            "0x00000000000000000000000003011a306cbd22c9e640d3456e8209de8ab02eef"
          ],
          "data": "0x00000000000000000000000000000000000000000000000000000000000f4228",
          "blockHash": "0xc696406b77a674208366d55fd072e2653248e67c92bb06694306f3c33530709d",
          "blockNumber": "0xe5398d4",
          "transactionHash": "0x2af5ba1c9b7aec472c78a063e01d9ae2b35b2dc0abc8377996ba808349cba842",
          "transactionIndex": "0x1",
          "logIndex": "0x2",
          "removed": false
        },
        {
          "address": "0x577e289f663a4e29c231135c09d6a0713ce7aaff",
          "topics": [
            "0xdcbc1c05240f31ff3ad067ef1ee35ce4997762752e3a095284754544f4c709d7",
            "0x000000000000000000000000e32bfe0922d38007b47e08c8b89b1ada8e4d03fb",
            "0x00000000000000000000000003011a306cbd22c9e640d3456e8209de8ab02eef"
          ],
          "data": "0x00000000000000000000000000000000000000000000000000000000000f424000000000000000000000000000000000000000000000000000000000000f4228",
          "blockHash": "0xc696406b77a674208366d55fd072e2653248e67c92bb06694306f3c33530709d",
          "blockNumber": "0xe5398d4",
          "transactionHash": "0x2af5ba1c9b7aec472c78a063e01d9ae2b35b2dc0abc8377996ba808349cba842",
          "transactionIndex": "0x1",
          "logIndex": "0x3",
          "removed": false
        },
        {
          "address": "0x577e289f663a4e29c231135c09d6a0713ce7aaff",
          "topics": [
            "0x80b61abbfc5f73cfe5cf93cec97a69ed20643dc6c6f1833b05a1560aa164e24c"
          ],
          "data": "0x0000000000000000000000000000000000000000000000000000000001c9c13b0000000000000000000000000000000000000000000000000000000000493e7d0000000000000000000000000000000000000000000000000000000000000009000000000000000000000000000000000000000000000000000000000180858a0000000000000000000000000000000000000000033b48f88c5c9aab4b38d81c0000000000000000000000000000000000000000000000000d69b470d25142940000000000000000000000000000000000000000000000000000000066b35a65",
          "blockHash": "0xc696406b77a674208366d55fd072e2653248e67c92bb06694306f3c33530709d",
          "blockNumber": "0xe5398d4",
          "transactionHash": "0x2af5ba1c9b7aec472c78a063e01d9ae2b35b2dc0abc8377996ba808349cba842",
          "transactionIndex": "0x1",
          "logIndex": "0x4",
          "removed": false
        },
        {
          "address": "0xe45ee4046bd755330d555dfe4ada7839a3eeb926",
          "topics": [
            "0xaea973cfb51ea8ca328767d72f105b5b9d2360c65f5ac4110a2c4470434471c9",
            "0x000000000000000000000000577e289f663a4e29c231135c09d6a0713ce7aaff"
          ],
          "data": "0x",
          "blockHash": "0xc696406b77a674208366d55fd072e2653248e67c92bb06694306f3c33530709d",
          "blockNumber": "0xe5398d4",
          "transactionHash": "0x2af5ba1c9b7aec472c78a063e01d9ae2b35b2dc0abc8377996ba808349cba842",
          "transactionIndex": "0x1",
          "logIndex": "0x5",
          "removed": false
        }
      ],
      "logsBloom": "0x00000000000000000000000000000000000000080000000000000000000220800000000400000000000000000000000000000001000000000000000000000000000000400000000000000008000000000000000000000000004000000000000000000000020000000000000000000800280000000004000000000010000000000000000000000000000000001000000000000000000400000000000000000000000000000000000000000000000011000000000000020002000008000000800000002002000004010000000010000000000000000008000004001000000024020000200000000000000000000000200000000000000000000000000002020000",
      "type": "0x2",
      "transactionHash": "0x2af5ba1c9b7aec472c78a063e01d9ae2b35b2dc0abc8377996ba808349cba842",
      "transactionIndex": "0x1",
      "blockHash": "0xc696406b77a674208366d55fd072e2653248e67c92bb06694306f3c33530709d",
      "blockNumber": "0xe5398d4",
      "gasUsed": "0x2c87d",
      "effectiveGasPrice": "0x989680",
      "from": "0xe32bfe0922d38007b47e08c8b89b1ada8e4d03fb",
      "to": "0x577e289f663a4e29c231135c09d6a0713ce7aaff",
      "contractAddress": null,
      "gasUsedForL1": "0x538b",
      "l1BlockNumber": "0x13871ec"
    },
    {
      "status": "0x1",
      "cumulativeGasUsed": "0x26955",
      "logs": [
        {
          "address": "0xe45ee4046bd755330d555dfe4ada7839a3eeb926",
          "topics": [
            "0x6e9738e5aa38fe1517adbb480351ec386ece82947737b18badbcad1e911133ec",
            "0x000000000000000000000000f67f9b1042a7f419c2c0259c983fb1f75f981fd4",
            "0xe32bfe0922d38007b47e08c8b89b1ada8e4d0300000000000000000000000000",
            "0x000000000000000000000000f67f9b1042a7f419c2c0259c983fb1f75f981fd4"
          ],
          "data": "0x000000000000000000000000e32bfe0922d38007b47e08c8b89b1ada8e4d03fb6e553f6500000000000000000000000000000000000000000000000000000000",
          "blockHash": "0x59827893513ea9f090a8c5be4eb7ac7101edc5bc2987a5c31bee8a4f9be556d0",
          "blockNumber": "0xe5398d7",
          "transactionHash": "0xc7c815e3b8d4f5682da87953e5a9adde0401f0aeac16bab4477b9847e39ef4d0",
          "transactionIndex": "0x1",
          "logIndex": "0x0",
          "removed": false
        },
        {
          "address": "0xda10009cbd5d07dd0cecc66161fc93d7c9000da1",
          "topics": [
            "0xddf252ad1be2c89b69c2b068fc378daa952ba7f163c4a11628f55a4df523b3ef",
            "0x000000000000000000000000e32bfe0922d38007b47e08c8b89b1ada8e4d03fb",
            "0x000000000000000000000000f67f9b1042a7f419c2c0259c983fb1f75f981fd4"
          ],
          "data": "0x0000000000000000000000000000000000000000000000000de0b6b3a7640000",
          "blockHash": "0x59827893513ea9f090a8c5be4eb7ac7101edc5bc2987a5c31bee8a4f9be556d0",
          "blockNumber": "0xe5398d7",
          "transactionHash": "0xc7c815e3b8d4f5682da87953e5a9adde0401f0aeac16bab4477b9847e39ef4d0",
          "transactionIndex": "0x1",
          "logIndex": "0x1",
          "removed": false
        },
        {
          "address": "0xf67f9b1042a7f419c2c0259c983fb1f75f981fd4",
          "topics": [
            "0xddf252ad1be2c89b69c2b068fc378daa952ba7f163c4a11628f55a4df523b3ef",
            "0x0000000000000000000000000000000000000000000000000000000000000000",
            "0x00000000000000000000000003011a306cbd22c9e640d3456e8209de8ab02eef"
          ],
          "data": "0x0000000000000000000000000000000000000000000000000de0b6b3a7640000",
          "blockHash": "0x59827893513ea9f090a8c5be4eb7ac7101edc5bc2987a5c31bee8a4f9be556d0",
          "blockNumber": "0xe5398d7",
          "transactionHash": "0xc7c815e3b8d4f5682da87953e5a9adde0401f0aeac16bab4477b9847e39ef4d0",
          "transactionIndex": "0x1",
          "logIndex": "0x2",
          "removed": false
        },
        {
          "address": "0xf67f9b1042a7f419c2c0259c983fb1f75f981fd4",
          "topics": [
            "0xdcbc1c05240f31ff3ad067ef1ee35ce4997762752e3a095284754544f4c709d7",
            "0x000000000000000000000000e32bfe0922d38007b47e08c8b89b1ada8e4d03fb",
            "0x00000000000000000000000003011a306cbd22c9e640d3456e8209de8ab02eef"
          ],
          "data": "0x0000000000000000000000000000000000000000000000000de0b6b3a76400000000000000000000000000000000000000000000000000000de0b6b3a7640000",
          "blockHash": "0x59827893513ea9f090a8c5be4eb7ac7101edc5bc2987a5c31bee8a4f9be556d0",
          "blockNumber": "0xe5398d7",
          "transactionHash": "0xc7c815e3b8d4f5682da87953e5a9adde0401f0aeac16bab4477b9847e39ef4d0",
          "transactionIndex": "0x1",
          "logIndex": "0x3",
          "removed": false
        },
        {
          "address": "0xf67f9b1042a7f419c2c0259c983fb1f75f981fd4",
          "topics": [
            "0x80b61abbfc5f73cfe5cf93cec97a69ed20643dc6c6f1833b05a1560aa164e24c"
          ],
          "data": "0x00000000000000000000000000000000000000000000000198e009c929fc196b0000000000000000000000000000000000000000000000000000000000000000000000000000000000000000000000000000000000000000000000000000000000000000000000000000000000000000000000000000000198e009c929fc196b0000000000000000000000000000000000000000033b2e3c9fd0803ce800000000000000000000000000000000000000000000000000000000000000000000000000000000000000000000000000000000000000000000000000000066b35a66",
          "blockHash": "0x59827893513ea9f090a8c5be4eb7ac7101edc5bc2987a5c31bee8a4f9be556d0",
          "blockNumber": "0xe5398d7",
          "transactionHash": "0xc7c815e3b8d4f5682da87953e5a9adde0401f0aeac16bab4477b9847e39ef4d0",
          "transactionIndex": "0x1",
          "logIndex": "0x4",
          "removed": false
        },
        {
          "address": "0xe45ee4046bd755330d555dfe4ada7839a3eeb926",
          "topics": [
            "0xaea973cfb51ea8ca328767d72f105b5b9d2360c65f5ac4110a2c4470434471c9",
            "0x000000000000000000000000f67f9b1042a7f419c2c0259c983fb1f75f981fd4"
          ],
          "data": "0x",
          "blockHash": "0x59827893513ea9f090a8c5be4eb7ac7101edc5bc2987a5c31bee8a4f9be556d0",
          "blockNumber": "0xe5398d7",
          "transactionHash": "0xc7c815e3b8d4f5682da87953e5a9adde0401f0aeac16bab4477b9847e39ef4d0",
          "transactionIndex": "0x1",
          "logIndex": "0x5",
          "removed": false
        }
      ],
      "logsBloom": "0x00000000000000000008000000000000000000040000000800000000000020800000000400000000000000000000000000000000000000000000000000000000000000400000000001000008000000400000000000000000004000000000000000000000020000000000000000000800280000000004000000000010000000000000000000000000000000001000000000000008000400000000000000000000000000000000000000000000000001000000000000020000000008000000800000000002000004010000000010000000200000000008000004001000000024020000000020000004000000000000000000000000000000000000000000020000",
      "type": "0x2",
      "transactionHash": "0xc7c815e3b8d4f5682da87953e5a9adde0401f0aeac16bab4477b9847e39ef4d0",
      "transactionIndex": "0x1",
      "blockHash": "0x59827893513ea9f090a8c5be4eb7ac7101edc5bc2987a5c31bee8a4f9be556d0",
      "blockNumber": "0xe5398d7",
      "gasUsed": "0x26955",
      "effectiveGasPrice": "0x989680",
      "from": "0xe32bfe0922d38007b47e08c8b89b1ada8e4d03fb",
      "to": "0xf67f9b1042a7f419c2c0259c983fb1f75f981fd4",
      "contractAddress": null,
      "gasUsedForL1": "0x538b",
      "l1BlockNumber": "0x13871ec"
    }
  ],
  "libraries": [],
  "pending": [],
  "returns": {},
  "timestamp": 1723030125,
  "chain": 42161,
  "commit": "cac937e"
}