{
  "transactions": [
    {
      "hash": "0xe391b76887b29af5478aaa5b7e32aebee91fb224b2c1e8ced48ea84f27189442",
      "transactionType": "CALL",
      "contractName": null,
      "contractAddress": "0x577e289f663a4e29c231135c09d6a0713ce7aaff",
      "function": "deposit(uint256,address)",
      "arguments": [
        "1000000",
        "0xe95E012038D78C3582aDFBa4691BeBA3E62A4c65"
      ],
      "transaction": {
        "from": "0xe32bfe0922d38007b47e08c8b89b1ada8e4d03fb",
        "to": "0x577e289f663a4e29c231135c09d6a0713ce7aaff",
        "gas": "0x3bd43",
        "value": "0x0",
        "input": "0x6e553f6500000000000000000000000000000000000000000000000000000000000f4240000000000000000000000000e95e012038d78c3582adfba4691beba3e62a4c65",
        "nonce": "0x6f",
        "chainId": "0xa4b1"
      },
      "additionalContracts": [],
      "isFixedGasLimit": false
    },
    {
      "hash": "0xab52d02fce6fbc0f74e325ec2cd6468a57364dee04a38f146d3c3497544610a9",
      "transactionType": "CALL",
      "contractName": null,
      "contractAddress": "0xf67f9b1042a7f419c2c0259c983fb1f75f981fd4",
      "function": "deposit(uint256,address)",
      "arguments": [
        "1000000000000000000",
        "0xe95E012038D78C3582aDFBa4691BeBA3E62A4c65"
      ],
      "transaction": {
        "from": "0xe32bfe0922d38007b47e08c8b89b1ada8e4d03fb",
        "to": "0xf67f9b1042a7f419c2c0259c983fb1f75f981fd4",
        "gas": "0x35487",
        "value": "0x0",
        "input": "0x6e553f650000000000000000000000000000000000000000000000000de0b6b3a7640000000000000000000000000000e95e012038d78c3582adfba4691beba3e62a4c65",
        "nonce": "0x70",
        "chainId": "0xa4b1"
      },
      "additionalContracts": [],
      "isFixedGasLimit": false
    }
  ],
  "receipts": [
    {
      "status": "0x1",
      "cumulativeGasUsed": "0x16e34f",
      "logs": [
        {
          "address": "0xe45ee4046bd755330d555dfe4ada7839a3eeb926",
          "topics": [
            "0x6e9738e5aa38fe1517adbb480351ec386ece82947737b18badbcad1e911133ec",
            "0x000000000000000000000000577e289f663a4e29c231135c09d6a0713ce7aaff",
            "0xe32bfe0922d38007b47e08c8b89b1ada8e4d0300000000000000000000000000",
            "0x000000000000000000000000577e289f663a4e29c231135c09d6a0713ce7aaff"
          ],
          "data": "0x000000000000000000000000e32bfe0922d38007b47e08c8b89b1ada8e4d03fb6e553f6500000000000000000000000000000000000000000000000000000000",
          "blockHash": "0x33a804ffd1ec89659b03e893334506116282e7a3c1bb7b5b3729a7e5673f4fca",
          "blockNumber": "0xe4e7cb9",
          "transactionHash": "0xe391b76887b29af5478aaa5b7e32aebee91fb224b2c1e8ced48ea84f27189442",
          "transactionIndex": "0x9",
          "logIndex": "0x14",
          "removed": false
        },
        {
          "address": "0xaf88d065e77c8cc2239327c5edb3a432268e5831",
          "topics": [
            "0xddf252ad1be2c89b69c2b068fc378daa952ba7f163c4a11628f55a4df523b3ef",
            "0x000000000000000000000000e32bfe0922d38007b47e08c8b89b1ada8e4d03fb",
            "0x000000000000000000000000577e289f663a4e29c231135c09d6a0713ce7aaff"
          ],
          "data": "0x00000000000000000000000000000000000000000000000000000000000f4240",
          "blockHash": "0x33a804ffd1ec89659b03e893334506116282e7a3c1bb7b5b3729a7e5673f4fca",
          "blockNumber": "0xe4e7cb9",
          "transactionHash": "0xe391b76887b29af5478aaa5b7e32aebee91fb224b2c1e8ced48ea84f27189442",
          "transactionIndex": "0x9",
          "logIndex": "0x15",
          "removed": false
        },
        {
          "address": "0x577e289f663a4e29c231135c09d6a0713ce7aaff",
          "topics": [
            "0xddf252ad1be2c89b69c2b068fc378daa952ba7f163c4a11628f55a4df523b3ef",
            "0x0000000000000000000000000000000000000000000000000000000000000000",
            "0x000000000000000000000000e95e012038d78c3582adfba4691beba3e62a4c65"
          ],
          "data": "0x00000000000000000000000000000000000000000000000000000000000f423d",
          "blockHash": "0x33a804ffd1ec89659b03e893334506116282e7a3c1bb7b5b3729a7e5673f4fca",
          "blockNumber": "0xe4e7cb9",
          "transactionHash": "0xe391b76887b29af5478aaa5b7e32aebee91fb224b2c1e8ced48ea84f27189442",
          "transactionIndex": "0x9",
          "logIndex": "0x16",
          "removed": false
        },
        {
          "address": "0x577e289f663a4e29c231135c09d6a0713ce7aaff",
          "topics": [
            "0xdcbc1c05240f31ff3ad067ef1ee35ce4997762752e3a095284754544f4c709d7",
            "0x000000000000000000000000e32bfe0922d38007b47e08c8b89b1ada8e4d03fb",
            "0x000000000000000000000000e95e012038d78c3582adfba4691beba3e62a4c65"
          ],
          "data": "0x00000000000000000000000000000000000000000000000000000000000f424000000000000000000000000000000000000000000000000000000000000f423d",
          "blockHash": "0x33a804ffd1ec89659b03e893334506116282e7a3c1bb7b5b3729a7e5673f4fca",
          "blockNumber": "0xe4e7cb9",
          "transactionHash": "0xe391b76887b29af5478aaa5b7e32aebee91fb224b2c1e8ced48ea84f27189442",
          "transactionIndex": "0x9",
          "logIndex": "0x17",
          "removed": false
        },
        {
          "address": "0x577e289f663a4e29c231135c09d6a0713ce7aaff",
          "topics": [
            "0x80b61abbfc5f73cfe5cf93cec97a69ed20643dc6c6f1833b05a1560aa164e24c"
          ],
          "data": "0x00000000000000000000000000000000000000000000000000000000002dc6ba000000000000000000000000000000000000000000000000000000000007a126000000000000000000000000000000000000000000000000000000000000000000000000000000000000000000000000000000000000000000000000002625a00000000000000000000000000000000000000000033b306702db45e56690a48b0000000000000000000000000000000000000000000000000df8bc0eb73ade400000000000000000000000000000000000000000000000000000000066b21148",
          "blockHash": "0x33a804ffd1ec89659b03e893334506116282e7a3c1bb7b5b3729a7e5673f4fca",
          "blockNumber": "0xe4e7cb9",
          "transactionHash": "0xe391b76887b29af5478aaa5b7e32aebee91fb224b2c1e8ced48ea84f27189442",
          "transactionIndex": "0x9",
          "logIndex": "0x18",
          "removed": false
        },
        {
          "address": "0xe45ee4046bd755330d555dfe4ada7839a3eeb926",
          "topics": [
            "0xaea973cfb51ea8ca328767d72f105b5b9d2360c65f5ac4110a2c4470434471c9",
            "0x000000000000000000000000577e289f663a4e29c231135c09d6a0713ce7aaff"
          ],
          "data": "0x",
          "blockHash": "0x33a804ffd1ec89659b03e893334506116282e7a3c1bb7b5b3729a7e5673f4fca",
          "blockNumber": "0xe4e7cb9",
          "transactionHash": "0xe391b76887b29af5478aaa5b7e32aebee91fb224b2c1e8ced48ea84f27189442",
          "transactionIndex": "0x9",
          "logIndex": "0x19",
          "removed": false
        }
      ],
      "logsBloom": "0x00000000000000000000000000000000000000080000000000000000000220800000000400010000000000000000000000000001000000000000000000000000000000400000000000000008000000000000000000000000004000000000000000000000020000000000000000000800280000000004000000000010000000000000080000000000000000001000000000000000000400000000000000000000000000000000000000000000000011000000000000020002040008000000800000002002000004000000000010000000000000000008000000001000000020020000200000000000000000000000200000000000000000000000000002020000",
      "type": "0x2",
      "transactionHash": "0xe391b76887b29af5478aaa5b7e32aebee91fb224b2c1e8ced48ea84f27189442",
      "transactionIndex": "0x9",
      "blockHash": "0x33a804ffd1ec89659b03e893334506116282e7a3c1bb7b5b3729a7e5673f4fca",
      "blockNumber": "0xe4e7cb9",
      "gasUsed": "0x2927c",
      "effectiveGasPrice": "0xb9ce68",
      "from": "0xe32bfe0922d38007b47e08c8b89b1ada8e4d03fb",
      "to": "0x577e289f663a4e29c231135c09d6a0713ce7aaff",
      "contractAddress": null,
      "gasUsedForL1": "0x31a7",
      "l1BlockNumber": "0x13856a2"
    },
    {
      "status": "0x1",
      "cumulativeGasUsed": "0x24575",
      "logs": [
        {
          "address": "0xe45ee4046bd755330d555dfe4ada7839a3eeb926",
          "topics": [
            "0x6e9738e5aa38fe1517adbb480351ec386ece82947737b18badbcad1e911133ec",
            "0x000000000000000000000000f67f9b1042a7f419c2c0259c983fb1f75f981fd4",
            "0xe32bfe0922d38007b47e08c8b89b1ada8e4d0300000000000000000000000000",
            "0x000000000000000000000000f67f9b1042a7f419c2c0259c983fb1f75f981fd4"
          ],
          "data": "0x000000000000000000000000e32bfe0922d38007b47e08c8b89b1ada8e4d03fb6e553f6500000000000000000000000000000000000000000000000000000000",
          "blockHash": "0xb1a8fcafea4c404f5912835b31b13b9c6547059af1d1eb1b488623f733be8b65",
          "blockNumber": "0xe4e7cbc",
          "transactionHash": "0xab52d02fce6fbc0f74e325ec2cd6468a57364dee04a38f146d3c3497544610a9",
          "transactionIndex": "0x1",
          "logIndex": "0x0",
          "removed": false
        },
        {
          "address": "0xda10009cbd5d07dd0cecc66161fc93d7c9000da1",
          "topics": [
            "0xddf252ad1be2c89b69c2b068fc378daa952ba7f163c4a11628f55a4df523b3ef",
            "0x000000000000000000000000e32bfe0922d38007b47e08c8b89b1ada8e4d03fb",
            "0x000000000000000000000000f67f9b1042a7f419c2c0259c983fb1f75f981fd4"
          ],
          "data": "0x0000000000000000000000000000000000000000000000000de0b6b3a7640000",
          "blockHash": "0xb1a8fcafea4c404f5912835b31b13b9c6547059af1d1eb1b488623f733be8b65",
          "blockNumber": "0xe4e7cbc",
          "transactionHash": "0xab52d02fce6fbc0f74e325ec2cd6468a57364dee04a38f146d3c3497544610a9",
          "transactionIndex": "0x1",
          "logIndex": "0x1",
          "removed": false
        },
        {
          "address": "0xf67f9b1042a7f419c2c0259c983fb1f75f981fd4",
          "topics": [
            "0xddf252ad1be2c89b69c2b068fc378daa952ba7f163c4a11628f55a4df523b3ef",
            "0x0000000000000000000000000000000000000000000000000000000000000000",
            "0x000000000000000000000000e95e012038d78c3582adfba4691beba3e62a4c65"
          ],
          "data": "0x0000000000000000000000000000000000000000000000000de0b6b3a7640000",
          "blockHash": "0xb1a8fcafea4c404f5912835b31b13b9c6547059af1d1eb1b488623f733be8b65",
          "blockNumber": "0xe4e7cbc",
          "transactionHash": "0xab52d02fce6fbc0f74e325ec2cd6468a57364dee04a38f146d3c3497544610a9",
          "transactionIndex": "0x1",
          "logIndex": "0x2",
          "removed": false
        },
        {
          "address": "0xf67f9b1042a7f419c2c0259c983fb1f75f981fd4",
          "topics": [
            "0xdcbc1c05240f31ff3ad067ef1ee35ce4997762752e3a095284754544f4c709d7",
            "0x000000000000000000000000e32bfe0922d38007b47e08c8b89b1ada8e4d03fb",
            "0x000000000000000000000000e95e012038d78c3582adfba4691beba3e62a4c65"
          ],
          "data": "0x0000000000000000000000000000000000000000000000000de0b6b3a76400000000000000000000000000000000000000000000000000000de0b6b3a7640000",
          "blockHash": "0xb1a8fcafea4c404f5912835b31b13b9c6547059af1d1eb1b488623f733be8b65",
          "blockNumber": "0xe4e7cbc",
          "transactionHash": "0xab52d02fce6fbc0f74e325ec2cd6468a57364dee04a38f146d3c3497544610a9",
          "transactionIndex": "0x1",
          "logIndex": "0x3",
          "removed": false
        },
        {
          "address": "0xf67f9b1042a7f419c2c0259c983fb1f75f981fd4",
          "topics": [
            "0x80b61abbfc5f73cfe5cf93cec97a69ed20643dc6c6f1833b05a1560aa164e24c"
          ],
          "data": "0x00000000000000000000000000000000000000000000000029a2241af62c00000000000000000000000000000000000000000000000000000000000000000000000000000000000000000000000000000000000000000000000000000000000000000000000000000000000000000000000000000000000029a2241af62c00000000000000000000000000000000000000000000033b2e3c9fd0803ce800000000000000000000000000000000000000000000000000000000000000000000000000000000000000000000000000000000000000000000000000000066b21149",
          "blockHash": "0xb1a8fcafea4c404f5912835b31b13b9c6547059af1d1eb1b488623f733be8b65",
          "blockNumber": "0xe4e7cbc",
          "transactionHash": "0xab52d02fce6fbc0f74e325ec2cd6468a57364dee04a38f146d3c3497544610a9",
          "transactionIndex": "0x1",
          "logIndex": "0x4",
          "removed": false
        },
        {
          "address": "0xe45ee4046bd755330d555dfe4ada7839a3eeb926",
          "topics": [
            "0xaea973cfb51ea8ca328767d72f105b5b9d2360c65f5ac4110a2c4470434471c9",
            "0x000000000000000000000000f67f9b1042a7f419c2c0259c983fb1f75f981fd4"
          ],
          "data": "0x",
          "blockHash": "0xb1a8fcafea4c404f5912835b31b13b9c6547059af1d1eb1b488623f733be8b65",
          "blockNumber": "0xe4e7cbc",
          "transactionHash": "0xab52d02fce6fbc0f74e325ec2cd6468a57364dee04a38f146d3c3497544610a9",
          "transactionIndex": "0x1",
          "logIndex": "0x5",
          "removed": false
        }
      ],
      "logsBloom": "0x00000000000000000008000000000000000000040000000800000000000020800000000400010000000000000000000000000000000000000000000000000000000000400000000001000008000000400000000000000000004000000000000000000000020000000000000000000800280000000004000000000010000000000000080000000000000000001000000000000008000400000000000000000000000000000000000000000000000001000000000000020000040008000000800000000002000004000000000010000000200000000008000000001000000020020000000020000004000000000000000000000000000000000000000000020000",
      "type": "0x2",
      "transactionHash": "0xab52d02fce6fbc0f74e325ec2cd6468a57364dee04a38f146d3c3497544610a9",
      "transactionIndex": "0x1",
      "blockHash": "0xb1a8fcafea4c404f5912835b31b13b9c6547059af1d1eb1b488623f733be8b65",
      "blockNumber": "0xe4e7cbc",
      "gasUsed": "0x24575",
      "effectiveGasPrice": "0xbbf918",
      "from": "0xe32bfe0922d38007b47e08c8b89b1ada8e4d03fb",
      "to": "0xf67f9b1042a7f419c2c0259c983fb1f75f981fd4",
      "contractAddress": null,
      "gasUsedForL1": "0x3114",
      "l1BlockNumber": "0x13856a2"
    }
  ],
  "libraries": [],
  "pending": [],
  "returns": {},
  "timestamp": 1722945872,
  "chain": 42161,
  "commit": "ea47789"
}