{
  "transactions": [
    {
      "hash": "0x421790c31dda8588e3e3299fce067d4c08d032fefb5facf5b7e9128fff1f0e88",
      "transactionType": "CALL",
      "contractName": null,
      "contractAddress": "0x577e289f663a4e29c231135c09d6a0713ce7aaff",
      "function": "borrow(uint256,address)",
      "arguments": [
        "500000",
        "0x37B5559c63821820EaAC5FF770e5C421d6A2676B"
      ],
      "transaction": {
        "from": "0x37b5559c63821820eaac5ff770e5c421d6a2676b",
        "to": "0x577e289f663a4e29c231135c09d6a0713ce7aaff",
        "gas": "0x55743",
        "value": "0x0",
        "input": "0x4b3fd148000000000000000000000000000000000000000000000000000000000007a12000000000000000000000000037b5559c63821820eaac5ff770e5c421d6a2676b",
        "nonce": "0x3d",
        "chainId": "0xa4b1"
      },
      "additionalContracts": [],
      "isFixedGasLimit": false
    }
  ],
  "receipts": [
    {
      "status": "0x1",
      "cumulativeGasUsed": "0x9f6c0",
      "logs": [
        {
          "address": "0xe45ee4046bd755330d555dfe4ada7839a3eeb926",
          "topics": [
            "0x6e9738e5aa38fe1517adbb480351ec386ece82947737b18badbcad1e911133ec",
            "0x000000000000000000000000577e289f663a4e29c231135c09d6a0713ce7aaff",
            "0x37b5559c63821820eaac5ff770e5c421d6a26700000000000000000000000000",
            "0x000000000000000000000000577e289f663a4e29c231135c09d6a0713ce7aaff"
          ],
          "data": "0x00000000000000000000000037b5559c63821820eaac5ff770e5c421d6a2676b4b3fd14800000000000000000000000000000000000000000000000000000000",
          "blockHash": "0x31761f338f274798485822df0d69365643685513b573feb2ca22fe9c9e7a3e9e",
          "blockNumber": "0xeb9d3fd",
          "transactionHash": "0x421790c31dda8588e3e3299fce067d4c08d032fefb5facf5b7e9128fff1f0e88",
          "transactionIndex": "0x2",
          "logIndex": "0xe",
          "removed": false
        },
        {
          "address": "0x577e289f663a4e29c231135c09d6a0713ce7aaff",
          "topics": [
            "0xcbc04eca7e9da35cb1393a6135a199ca52e450d5e9251cbd99f7847d33a36750",
            "0x00000000000000000000000037b5559c63821820eaac5ff770e5c421d6a2676b"
          ],
          "data": "0x000000000000000000000000000000000000000000000000000000000007a120",
          "blockHash": "0x31761f338f274798485822df0d69365643685513b573feb2ca22fe9c9e7a3e9e",
          "blockNumber": "0xeb9d3fd",
          "transactionHash": "0x421790c31dda8588e3e3299fce067d4c08d032fefb5facf5b7e9128fff1f0e88",
          "transactionIndex": "0x2",
          "logIndex": "0xf",
          "removed": false
        },
        {
          "address": "0xe486a6141116e47a8b6a85c2bd191225af941b6a",
          "topics": [
            "0xddf252ad1be2c89b69c2b068fc378daa952ba7f163c4a11628f55a4df523b3ef",
            "0x0000000000000000000000000000000000000000000000000000000000000000",
            "0x00000000000000000000000037b5559c63821820eaac5ff770e5c421d6a2676b"
          ],
          "data": "0x000000000000000000000000000000000000000000000000000000000007a120",
          "blockHash": "0x31761f338f274798485822df0d69365643685513b573feb2ca22fe9c9e7a3e9e",
          "blockNumber": "0xeb9d3fd",
          "transactionHash": "0x421790c31dda8588e3e3299fce067d4c08d032fefb5facf5b7e9128fff1f0e88",
          "transactionIndex": "0x2",
          "logIndex": "0x10",
          "removed": false
        },
        {
          "address": "0xaf88d065e77c8cc2239327c5edb3a432268e5831",
          "topics": [
            "0xddf252ad1be2c89b69c2b068fc378daa952ba7f163c4a11628f55a4df523b3ef",
            "0x000000000000000000000000577e289f663a4e29c231135c09d6a0713ce7aaff",
            "0x00000000000000000000000037b5559c63821820eaac5ff770e5c421d6a2676b"
          ],
          "data": "0x000000000000000000000000000000000000000000000000000000000007a120",
          "blockHash": "0x31761f338f274798485822df0d69365643685513b573feb2ca22fe9c9e7a3e9e",
          "blockNumber": "0xeb9d3fd",
          "transactionHash": "0x421790c31dda8588e3e3299fce067d4c08d032fefb5facf5b7e9128fff1f0e88",
          "transactionIndex": "0x2",
          "logIndex": "0x11",
          "removed": false
        },
        {
          "address": "0xe45ee4046bd755330d555dfe4ada7839a3eeb926",
          "topics": [
            "0x889a4d4628b31342e420737e2aeb45387087570710d26239aa8a5f13d3e829d4",
            "0x00000000000000000000000037b5559c63821820eaac5ff770e5c421d6a2676b",
            "0x000000000000000000000000577e289f663a4e29c231135c09d6a0713ce7aaff"
          ],
          "data": "0x",
          "blockHash": "0x31761f338f274798485822df0d69365643685513b573feb2ca22fe9c9e7a3e9e",
          "blockNumber": "0xeb9d3fd",
          "transactionHash": "0x421790c31dda8588e3e3299fce067d4c08d032fefb5facf5b7e9128fff1f0e88",
          "transactionIndex": "0x2",
          "logIndex": "0x12",
          "removed": false
        },
        {
          "address": "0x577e289f663a4e29c231135c09d6a0713ce7aaff",
          "topics": [
            "0x80b61abbfc5f73cfe5cf93cec97a69ed20643dc6c6f1833b05a1560aa164e24c"
          ],
          "data": "0x0000000000000000000000000000000000000000000000000000000001f7a38e00000000000000000000000000000000000000000000000000000000001e853500000000000000000000000000000000000000000000000000000000000000170000000000000000000000000000000000000000000000000000000001d86bba0000000000000000000000000000000000000000033b7a799d3d966b2e435314000000000000000000000000000000000000000000000000051648cb3350e5940000000000000000000000000000000000000000000000000000000066cd0d18",
          "blockHash": "0x31761f338f274798485822df0d69365643685513b573feb2ca22fe9c9e7a3e9e",
          "blockNumber": "0xeb9d3fd",
          "transactionHash": "0x421790c31dda8588e3e3299fce067d4c08d032fefb5facf5b7e9128fff1f0e88",
          "transactionIndex": "0x2",
          "logIndex": "0x13",
          "removed": false
        },
        {
          "address": "0xe45ee4046bd755330d555dfe4ada7839a3eeb926",
          "topics": [
            "0xaea973cfb51ea8ca328767d72f105b5b9d2360c65f5ac4110a2c4470434471c9",
            "0x000000000000000000000000577e289f663a4e29c231135c09d6a0713ce7aaff"
          ],
          "data": "0x",
          "blockHash": "0x31761f338f274798485822df0d69365643685513b573feb2ca22fe9c9e7a3e9e",
          "blockNumber": "0xeb9d3fd",
          "transactionHash": "0x421790c31dda8588e3e3299fce067d4c08d032fefb5facf5b7e9128fff1f0e88",
          "transactionIndex": "0x2",
          "logIndex": "0x14",
          "removed": false
        }
      ],
      "logsBloom": "0x0000000000000000000000000000000084000008000000000000000000022000000000000000000000000000000000000000000100000000000000000000000000000001000000000000001800000000000002000000000000400000000000000000000002000000000000000000080008000000000000800000001000000000000000000000000000000000100000000000000000000000084000000000000000000000000000000000004000001100000000000002002200000800000080000000a002000004000000000010000100000000000000000000001000000020000000200000000000800000400000200000000000000000000020000002020000",
      "type": "0x2",
      "transactionHash": "0x421790c31dda8588e3e3299fce067d4c08d032fefb5facf5b7e9128fff1f0e88",
      "transactionIndex": "0x2",
      "blockHash": "0x31761f338f274798485822df0d69365643685513b573feb2ca22fe9c9e7a3e9e",
      "blockNumber": "0xeb9d3fd",
      "gasUsed": "0x3cd55",
      "effectiveGasPrice": "0x989680",
      "from": "0x37b5559c63821820eaac5ff770e5c421d6a2676b",
      "to": "0x577e289f663a4e29c231135c09d6a0713ce7aaff",
      "contractAddress": null,
      "gasUsedForL1": "0x1543",
      "l1BlockNumber": "0x13a9336"
    }
  ],
  "libraries": [],
  "pending": [],
  "returns": {},
  "timestamp": 1724714271,
  "chain": 42161,
  "commit": "a2339cb"
}