{
  "transactions": [
    {
      "hash": "0x5470e7cb897b1cea04d754a09d99f41c3309d64f5d79850ffdf024b682a83530",
      "transactionType": "CALL",
      "contractName": null,
      "contractAddress": "0xda10009cbd5d07dd0cecc66161fc93d7c9000da1",
      "function": "approve(address,uint256)",
      "arguments": [
        "0xF67F9B1042A7f419c2C0259C983FB1f75f981fD4",
        "115792089237316195423570985008687907853269984665640564039457584007913129639935"
      ],
      "transaction": {
        "from": "0x37b5559c63821820eaac5ff770e5c421d6a2676b",
        "to": "0xda10009cbd5d07dd0cecc66161fc93d7c9000da1",
        "gas": "0x224b7",
        "value": "0x0",
        "input": "0x095ea7b3000000000000000000000000f67f9b1042a7f419c2c0259c983fb1f75f981fd4ffffffffffffffffffffffffffffffffffffffffffffffffffffffffffffffff",
        "nonce": "0x1a",
        "chainId": "0xa4b1"
      },
      "additionalContracts": [],
      "isFixedGasLimit": false
    },
    {
      "hash": "0x4dfbc9535bc03b6b2f2f788da7fd04c80f19d2c227258a9f27a057c0659712c7",
      "transactionType": "CALL",
      "contractName": null,
      "contractAddress": "0xf67f9b1042a7f419c2c0259c983fb1f75f981fd4",
      "function": "deposit(uint256,address)",
      "arguments": [
        "1000000000000000000",
        "0x37B5559c63821820EaAC5FF770e5C421d6A2676B"
      ],
      "transaction": {
        "from": "0x37b5559c63821820eaac5ff770e5c421d6a2676b",
        "to": "0xf67f9b1042a7f419c2c0259c983fb1f75f981fd4",
        "gas": "0x4ca6b",
        "value": "0x0",
        "input": "0x6e553f650000000000000000000000000000000000000000000000000de0b6b3a764000000000000000000000000000037b5559c63821820eaac5ff770e5c421d6a2676b",
        "nonce": "0x1b",
        "chainId": "0xa4b1"
      },
      "additionalContracts": [],
      "isFixedGasLimit": false
    },
    {
      "hash": "0xa7b7b98fccf3711c924f15c72060c36cd927f9fa2cf2400c5a826e104e0f6a79",
      "transactionType": "CALL",
      "contractName": null,
      "contractAddress": "0xe45ee4046bd755330d555dfe4ada7839a3eeb926",
      "function": "enableCollateral(address,address)",
      "arguments": [
        "0x37B5559c63821820EaAC5FF770e5C421d6A2676B",
        "0xF67F9B1042A7f419c2C0259C983FB1f75f981fD4"
      ],
      "transaction": {
        "from": "0x37b5559c63821820eaac5ff770e5c421d6a2676b",
        "to": "0xe45ee4046bd755330d555dfe4ada7839a3eeb926",
        "gas": "0x30618",
        "value": "0x0",
        "input": "0xd44fee5a00000000000000000000000037b5559c63821820eaac5ff770e5c421d6a2676b000000000000000000000000f67f9b1042a7f419c2c0259c983fb1f75f981fd4",
        "nonce": "0x1c",
        "chainId": "0xa4b1"
      },
      "additionalContracts": [],
      "isFixedGasLimit": false
    },
    {
      "hash": "0xb471762e739df3c84e07a451215fd459b7394d7877e055be848d24a834e72f9b",
      "transactionType": "CALL",
      "contractName": null,
      "contractAddress": "0xe45ee4046bd755330d555dfe4ada7839a3eeb926",
      "function": "enableController(address,address)",
      "arguments": [
        "0x37B5559c63821820EaAC5FF770e5C421d6A2676B",
        "0x577e289F663A4E29c231135c09d6a0713ce7AAff"
      ],
      "transaction": {
        "from": "0x37b5559c63821820eaac5ff770e5c421d6a2676b",
        "to": "0xe45ee4046bd755330d555dfe4ada7839a3eeb926",
        "gas": "0x305de",
        "value": "0x0",
        "input": "0xc368516c00000000000000000000000037b5559c63821820eaac5ff770e5c421d6a2676b000000000000000000000000577e289f663a4e29c231135c09d6a0713ce7aaff",
        "nonce": "0x1d",
        "chainId": "0xa4b1"
      },
      "additionalContracts": [],
      "isFixedGasLimit": false
    },
    {
      "hash": "0x28d8a25f13f59d0102ddd2a4d7d0d810c72292fbebd9f467c550dd1c56deff3c",
      "transactionType": "CALL",
      "contractName": null,
      "contractAddress": "0x577e289f663a4e29c231135c09d6a0713ce7aaff",
      "function": "borrow(uint256,address)",
      "arguments": [
        "500000",
        "0x37B5559c63821820EaAC5FF770e5C421d6A2676B"
      ],
      "transaction": {
        "from": "0x37b5559c63821820eaac5ff770e5c421d6a2676b",
        "to": "0x577e289f663a4e29c231135c09d6a0713ce7aaff",
        "gas": "0x56710",
        "value": "0x0",
        "input": "0x4b3fd148000000000000000000000000000000000000000000000000000000000007a12000000000000000000000000037b5559c63821820eaac5ff770e5c421d6a2676b",
        "nonce": "0x1e",
        "chainId": "0xa4b1"
      },
      "additionalContracts": [],
      "isFixedGasLimit": false
    }
  ],
  "receipts": [
    {
      "status": "0x1",
      "cumulativeGasUsed": "0x8d179",
      "logs": [
        {
          "address": "0xda10009cbd5d07dd0cecc66161fc93d7c9000da1",
          "topics": [
            "0x8c5be1e5ebec7d5bd14f71427d1e84f3dd0314c0f7b2291e5b200ac8c7c3b925",
            "0x00000000000000000000000037b5559c63821820eaac5ff770e5c421d6a2676b",
            "0x000000000000000000000000f67f9b1042a7f419c2c0259c983fb1f75f981fd4"
          ],
          "data": "0xffffffffffffffffffffffffffffffffffffffffffffffffffffffffffffffff",
          "blockHash": "0x201d9bdde0536e920aec08187b474ad17ba61648345b5f15a93015a0f2bdf820",
          "blockNumber": "0xe6e05a3",
          "transactionHash": "0x5470e7cb897b1cea04d754a09d99f41c3309d64f5d79850ffdf024b682a83530",
          "transactionIndex": "0x3",
          "logIndex": "0x7",
          "removed": false
        }
      ],
      "logsBloom": "0x00000000000000000008000000000000000000040000000800000000000000000000000000000000000000000000000000000000000000000000000000200000000000010000000001000010000000000000000000000000000000000000000000000000000000000000000000000000000000000000000000000000000000000000000000000000000000000000000000000000000000000000000000000000020000000000000000000000000000000000000000000000000000000000000000008000000000000000000000000000200000000000000000000000000000000010000020000000000000000000000000000000000000000000000000000000",
      "type": "0x2",
      "transactionHash": "0x5470e7cb897b1cea04d754a09d99f41c3309d64f5d79850ffdf024b682a83530",
      "transactionIndex": "0x3",
      "blockHash": "0x201d9bdde0536e920aec08187b474ad17ba61648345b5f15a93015a0f2bdf820",
      "blockNumber": "0xe6e05a3",
      "gasUsed": "0x13e79",
      "effectiveGasPrice": "0x1800880",
      "from": "0x37b5559c63821820eaac5ff770e5c421d6a2676b",
      "to": "0xda10009cbd5d07dd0cecc66161fc93d7c9000da1",
      "contractAddress": null,
      "gasUsedForL1": "0xd6f4",
      "l1BlockNumber": "0x138ff12"
    },
    {
      "status": "0x1",
      "cumulativeGasUsed": "0x117dba",
      "logs": [
        {
          "address": "0xe45ee4046bd755330d555dfe4ada7839a3eeb926",
          "topics": [
            "0x6e9738e5aa38fe1517adbb480351ec386ece82947737b18badbcad1e911133ec",
            "0x000000000000000000000000f67f9b1042a7f419c2c0259c983fb1f75f981fd4",
            "0x37b5559c63821820eaac5ff770e5c421d6a26700000000000000000000000000",
            "0x000000000000000000000000f67f9b1042a7f419c2c0259c983fb1f75f981fd4"
          ],
          "data": "0x00000000000000000000000037b5559c63821820eaac5ff770e5c421d6a2676b6e553f6500000000000000000000000000000000000000000000000000000000",
          "blockHash": "0x88cfc4df16cbd18145f22cc6b301f9a5ce47483eb87522c5949eb9cf324aec56",
          "blockNumber": "0xe6e05a6",
          "transactionHash": "0x4dfbc9535bc03b6b2f2f788da7fd04c80f19d2c227258a9f27a057c0659712c7",
          "transactionIndex": "0x4",
          "logIndex": "0x6",
          "removed": false
        },
        {
          "address": "0xda10009cbd5d07dd0cecc66161fc93d7c9000da1",
          "topics": [
            "0xddf252ad1be2c89b69c2b068fc378daa952ba7f163c4a11628f55a4df523b3ef",
            "0x00000000000000000000000037b5559c63821820eaac5ff770e5c421d6a2676b",
            "0x000000000000000000000000f67f9b1042a7f419c2c0259c983fb1f75f981fd4"
          ],
          "data": "0x0000000000000000000000000000000000000000000000000de0b6b3a7640000",
          "blockHash": "0x88cfc4df16cbd18145f22cc6b301f9a5ce47483eb87522c5949eb9cf324aec56",
          "blockNumber": "0xe6e05a6",
          "transactionHash": "0x4dfbc9535bc03b6b2f2f788da7fd04c80f19d2c227258a9f27a057c0659712c7",
          "transactionIndex": "0x4",
          "logIndex": "0x7",
          "removed": false
        },
        {
          "address": "0xf67f9b1042a7f419c2c0259c983fb1f75f981fd4",
          "topics": [
            "0xddf252ad1be2c89b69c2b068fc378daa952ba7f163c4a11628f55a4df523b3ef",
            "0x0000000000000000000000000000000000000000000000000000000000000000",
            "0x00000000000000000000000037b5559c63821820eaac5ff770e5c421d6a2676b"
          ],
          "data": "0x0000000000000000000000000000000000000000000000000de0b63cfee2fd8d",
          "blockHash": "0x88cfc4df16cbd18145f22cc6b301f9a5ce47483eb87522c5949eb9cf324aec56",
          "blockNumber": "0xe6e05a6",
          "transactionHash": "0x4dfbc9535bc03b6b2f2f788da7fd04c80f19d2c227258a9f27a057c0659712c7",
          "transactionIndex": "0x4",
          "logIndex": "0x8",
          "removed": false
        },
        {
          "address": "0xf67f9b1042a7f419c2c0259c983fb1f75f981fd4",
          "topics": [
            "0xdcbc1c05240f31ff3ad067ef1ee35ce4997762752e3a095284754544f4c709d7",
            "0x00000000000000000000000037b5559c63821820eaac5ff770e5c421d6a2676b",
            "0x00000000000000000000000037b5559c63821820eaac5ff770e5c421d6a2676b"
          ],
          "data": "0x0000000000000000000000000000000000000000000000000de0b6b3a76400000000000000000000000000000000000000000000000000000de0b63cfee2fd8d",
          "blockHash": "0x88cfc4df16cbd18145f22cc6b301f9a5ce47483eb87522c5949eb9cf324aec56",
          "blockNumber": "0xe6e05a6",
          "transactionHash": "0x4dfbc9535bc03b6b2f2f788da7fd04c80f19d2c227258a9f27a057c0659712c7",
          "transactionIndex": "0x4",
          "logIndex": "0x9",
          "removed": false
        },
        {
          "address": "0xf67f9b1042a7f419c2c0259c983fb1f75f981fd4",
          "topics": [
            "0x80b61abbfc5f73cfe5cf93cec97a69ed20643dc6c6f1833b05a1560aa164e24c"
          ],
          "data": "0x000000000000000000000000000000000000000000000001542c0d076296b4f5000000000000000000000000000000000000000000000000063ec4b985f5216600000000000000000000000000000000000000000000000000000135fcdcdc120000000000000000000000000000000000000000000000014ded53aa694ddb560000000000000000000000000000000000000000033b348081910a5a346154f40000000000000000000000000000000000000000000000000189fc50194482660000000000000000000000000000000000000000000000000000000066b9ffd3",
          "blockHash": "0x88cfc4df16cbd18145f22cc6b301f9a5ce47483eb87522c5949eb9cf324aec56",
          "blockNumber": "0xe6e05a6",
          "transactionHash": "0x4dfbc9535bc03b6b2f2f788da7fd04c80f19d2c227258a9f27a057c0659712c7",
          "transactionIndex": "0x4",
          "logIndex": "0xa",
          "removed": false
        },
        {
          "address": "0xe45ee4046bd755330d555dfe4ada7839a3eeb926",
          "topics": [
            "0xaea973cfb51ea8ca328767d72f105b5b9d2360c65f5ac4110a2c4470434471c9",
            "0x000000000000000000000000f67f9b1042a7f419c2c0259c983fb1f75f981fd4"
          ],
          "data": "0x",
          "blockHash": "0x88cfc4df16cbd18145f22cc6b301f9a5ce47483eb87522c5949eb9cf324aec56",
          "blockNumber": "0xe6e05a6",
          "transactionHash": "0x4dfbc9535bc03b6b2f2f788da7fd04c80f19d2c227258a9f27a057c0659712c7",
          "transactionIndex": "0x4",
          "logIndex": "0xb",
          "removed": false
        }
      ],
      "logsBloom": "0x00000000000000000008000000000000000000040000000800000000000020000000000000000000000000000000000000000000000000000000000000000000000000410000000001000018000000400000000000000000004000000000000000000000020000000000000000000800080000000004008000000010000000000000000000000000000000001000000000000008000000000000000000000000000000000000000000000000000001000000000000020020000008000000800000008002000004000000000010000000200000000008000000001000000020000000000020000004800000000000000000000000000000000000000000020000",
      "type": "0x2",
      "transactionHash": "0x4dfbc9535bc03b6b2f2f788da7fd04c80f19d2c227258a9f27a057c0659712c7",
      "transactionIndex": "0x4",
      "blockHash": "0x88cfc4df16cbd18145f22cc6b301f9a5ce47483eb87522c5949eb9cf324aec56",
      "blockNumber": "0xe6e05a6",
      "gasUsed": "0x31821",
      "effectiveGasPrice": "0x1806258",
      "from": "0x37b5559c63821820eaac5ff770e5c421d6a2676b",
      "to": "0xf67f9b1042a7f419c2c0259c983fb1f75f981fd4",
      "contractAddress": null,
      "gasUsedForL1": "0xd6c1",
      "l1BlockNumber": "0x138ff12"
    },
    {
      "status": "0x1",
      "cumulativeGasUsed": "0xf090e",
      "logs": [
        {
          "address": "0xe45ee4046bd755330d555dfe4ada7839a3eeb926",
          "topics": [
            "0x889a4d4628b31342e420737e2aeb45387087570710d26239aa8a5f13d3e829d4",
            "0x00000000000000000000000037b5559c63821820eaac5ff770e5c421d6a2676b",
            "0x000000000000000000000000577e289f663a4e29c231135c09d6a0713ce7aaff"
          ],
          "data": "0x",
          "blockHash": "0x796aefbe0c76846f3d626ce19eb00e830db8d61650c33a53bbb05bb71bd25f5f",
          "blockNumber": "0xe6e05aa",
          "transactionHash": "0xa7b7b98fccf3711c924f15c72060c36cd927f9fa2cf2400c5a826e104e0f6a79",
          "transactionIndex": "0x4",
          "logIndex": "0xc",
          "removed": false
        }
      ],
      "logsBloom": "0x00000000000000000000000000000000000000080000000000000000000000000000000000000000000000000000000000000000000000000000000000000000000000010000000000000010000000000000020000000000000000000000000000000000000000000000000000000000000000000000000000000000000000000000000000000000000000001000000000000000000000000000000000000000000000000000000000000000000010000000000000000002000000000000000000008000000000000000000010000000000000000000000000001000000000000000000000000000000000400000000000000000000000000020000000000000",
      "type": "0x2",
      "transactionHash": "0xa7b7b98fccf3711c924f15c72060c36cd927f9fa2cf2400c5a826e104e0f6a79",
      "transactionIndex": "0x4",
      "blockHash": "0x796aefbe0c76846f3d626ce19eb00e830db8d61650c33a53bbb05bb71bd25f5f",
      "blockNumber": "0xe6e05aa",
      "gasUsed": "0x1d950",
      "effectiveGasPrice": "0x18027c0",
      "from": "0x37b5559c63821820eaac5ff770e5c421d6a2676b",
      "to": "0xe45ee4046bd755330d555dfe4ada7839a3eeb926",
      "contractAddress": null,
      "gasUsedForL1": "0xd6e2",
      "l1BlockNumber": "0x138ff12"
    },
    {
      "status": "0x1",
      "cumulativeGasUsed": "0x120e64",
      "logs": [
        {
          "address": "0xe45ee4046bd755330d555dfe4ada7839a3eeb926",
          "topics": [
            "0x889a4d4628b31342e420737e2aeb45387087570710d26239aa8a5f13d3e829d4",
            "0x00000000000000000000000037b5559c63821820eaac5ff770e5c421d6a2676b",
            "0x000000000000000000000000577e289f663a4e29c231135c09d6a0713ce7aaff"
          ],
          "data": "0x",
          "blockHash": "0x9f9ad430ddc61188123c1ff14e9910392a59811bfdeeaff5478b562b54e9cb34",
          "blockNumber": "0xe6e05ad",
          "transactionHash": "0xb471762e739df3c84e07a451215fd459b7394d7877e055be848d24a834e72f9b",
          "transactionIndex": "0x7",
          "logIndex": "0x11",
          "removed": false
        }
      ],
      "logsBloom": "0x00000000000000000000000000000000000000080000000000000000000000000000000000000000000000000000000000000000000000000000000000000000000000010000000000000010000000000000020000000000000000000000000000000000000000000000000000000000000000000000000000000000000000000000000000000000000000001000000000000000000000000000000000000000000000000000000000000000000010000000000000000002000000000000000000008000000000000000000010000000000000000000000000001000000000000000000000000000000000400000000000000000000000000020000000000000",
      "type": "0x2",
      "transactionHash": "0xb471762e739df3c84e07a451215fd459b7394d7877e055be848d24a834e72f9b",
      "transactionIndex": "0x7",
      "blockHash": "0x9f9ad430ddc61188123c1ff14e9910392a59811bfdeeaff5478b562b54e9cb34",
      "blockNumber": "0xe6e05ad",
      "gasUsed": "0x1d67d",
      "effectiveGasPrice": "0x18509c0",
      "from": "0x37b5559c63821820eaac5ff770e5c421d6a2676b",
      "to": "0xe45ee4046bd755330d555dfe4ada7839a3eeb926",
      "contractAddress": null,
      "gasUsedForL1": "0xd430",
      "l1BlockNumber": "0x138ff12"
    },
    {
      "status": "0x1",
      "cumulativeGasUsed": "0x4da0e",
      "logs": [
        {
          "address": "0xe45ee4046bd755330d555dfe4ada7839a3eeb926",
          "topics": [
            "0x6e9738e5aa38fe1517adbb480351ec386ece82947737b18badbcad1e911133ec",
            "0x000000000000000000000000577e289f663a4e29c231135c09d6a0713ce7aaff",
            "0x37b5559c63821820eaac5ff770e5c421d6a26700000000000000000000000000",
            "0x000000000000000000000000577e289f663a4e29c231135c09d6a0713ce7aaff"
          ],
          "data": "0x00000000000000000000000037b5559c63821820eaac5ff770e5c421d6a2676b4b3fd14800000000000000000000000000000000000000000000000000000000",
          "blockHash": "0x1e94eaf4c6c44837b7ee9b7462eb6ec3935fd169a03b2c7d869cbf53b68ddb44",
          "blockNumber": "0xe6e05b1",
          "transactionHash": "0x28d8a25f13f59d0102ddd2a4d7d0d810c72292fbebd9f467c550dd1c56deff3c",
          "transactionIndex": "0x1",
          "logIndex": "0x0",
          "removed": false
        },
        {
          "address": "0x577e289f663a4e29c231135c09d6a0713ce7aaff",
          "topics": [
            "0xcbc04eca7e9da35cb1393a6135a199ca52e450d5e9251cbd99f7847d33a36750",
            "0x00000000000000000000000037b5559c63821820eaac5ff770e5c421d6a2676b"
          ],
          "data": "0x000000000000000000000000000000000000000000000000000000000007a120",
          "blockHash": "0x1e94eaf4c6c44837b7ee9b7462eb6ec3935fd169a03b2c7d869cbf53b68ddb44",
          "blockNumber": "0xe6e05b1",
          "transactionHash": "0x28d8a25f13f59d0102ddd2a4d7d0d810c72292fbebd9f467c550dd1c56deff3c",
          "transactionIndex": "0x1",
          "logIndex": "0x1",
          "removed": false
        },
        {
          "address": "0xe486a6141116e47a8b6a85c2bd191225af941b6a",
          "topics": [
            "0xddf252ad1be2c89b69c2b068fc378daa952ba7f163c4a11628f55a4df523b3ef",
            "0x0000000000000000000000000000000000000000000000000000000000000000",
            "0x00000000000000000000000037b5559c63821820eaac5ff770e5c421d6a2676b"
          ],
          "data": "0x000000000000000000000000000000000000000000000000000000000007a120",
          "blockHash": "0x1e94eaf4c6c44837b7ee9b7462eb6ec3935fd169a03b2c7d869cbf53b68ddb44",
          "blockNumber": "0xe6e05b1",
          "transactionHash": "0x28d8a25f13f59d0102ddd2a4d7d0d810c72292fbebd9f467c550dd1c56deff3c",
          "transactionIndex": "0x1",
          "logIndex": "0x2",
          "removed": false
        },
        {
          "address": "0xaf88d065e77c8cc2239327c5edb3a432268e5831",
          "topics": [
            "0xddf252ad1be2c89b69c2b068fc378daa952ba7f163c4a11628f55a4df523b3ef",
            "0x000000000000000000000000577e289f663a4e29c231135c09d6a0713ce7aaff",
            "0x00000000000000000000000037b5559c63821820eaac5ff770e5c421d6a2676b"
          ],
          "data": "0x000000000000000000000000000000000000000000000000000000000007a120",
          "blockHash": "0x1e94eaf4c6c44837b7ee9b7462eb6ec3935fd169a03b2c7d869cbf53b68ddb44",
          "blockNumber": "0xe6e05b1",
          "transactionHash": "0x28d8a25f13f59d0102ddd2a4d7d0d810c72292fbebd9f467c550dd1c56deff3c",
          "transactionIndex": "0x1",
          "logIndex": "0x3",
          "removed": false
        },
        {
          "address": "0xe45ee4046bd755330d555dfe4ada7839a3eeb926",
          "topics": [
            "0x889a4d4628b31342e420737e2aeb45387087570710d26239aa8a5f13d3e829d4",
            "0x00000000000000000000000037b5559c63821820eaac5ff770e5c421d6a2676b",
            "0x000000000000000000000000577e289f663a4e29c231135c09d6a0713ce7aaff"
          ],
          "data": "0x",
          "blockHash": "0x1e94eaf4c6c44837b7ee9b7462eb6ec3935fd169a03b2c7d869cbf53b68ddb44",
          "blockNumber": "0xe6e05b1",
          "transactionHash": "0x28d8a25f13f59d0102ddd2a4d7d0d810c72292fbebd9f467c550dd1c56deff3c",
          "transactionIndex": "0x1",
          "logIndex": "0x4",
          "removed": false
        },
        {
          "address": "0x577e289f663a4e29c231135c09d6a0713ce7aaff",
          "topics": [
            "0x80b61abbfc5f73cfe5cf93cec97a69ed20643dc6c6f1833b05a1560aa164e24c"
          ],
          "data": "0x0000000000000000000000000000000000000000000000000000000001d908c400000000000000000000000000000000000000000000000000000000000f4299000000000000000000000000000000000000000000000000000000000000000b0000000000000000000000000000000000000000000000000000000001c91d810000000000000000000000000000000000000000033b5395040a3f80d2fc299200000000000000000000000000000000000000000000000002b54635a8f82c860000000000000000000000000000000000000000000000000000000066b9ffd6",
          "blockHash": "0x1e94eaf4c6c44837b7ee9b7462eb6ec3935fd169a03b2c7d869cbf53b68ddb44",
          "blockNumber": "0xe6e05b1",
          "transactionHash": "0x28d8a25f13f59d0102ddd2a4d7d0d810c72292fbebd9f467c550dd1c56deff3c",
          "transactionIndex": "0x1",
          "logIndex": "0x5",
          "removed": false
        },
        {
          "address": "0xe45ee4046bd755330d555dfe4ada7839a3eeb926",
          "topics": [
            "0xaea973cfb51ea8ca328767d72f105b5b9d2360c65f5ac4110a2c4470434471c9",
            "0x000000000000000000000000577e289f663a4e29c231135c09d6a0713ce7aaff"
          ],
          "data": "0x",
          "blockHash": "0x1e94eaf4c6c44837b7ee9b7462eb6ec3935fd169a03b2c7d869cbf53b68ddb44",
          "blockNumber": "0xe6e05b1",
          "transactionHash": "0x28d8a25f13f59d0102ddd2a4d7d0d810c72292fbebd9f467c550dd1c56deff3c",
          "transactionIndex": "0x1",
          "logIndex": "0x6",
          "removed": false
        }
      ],
      "logsBloom": "0x0000000000000000000000000000000084000008000000000000000000022000000000000000000000000000000000000000000100000000000000000000000000000001000000000000001800000000000002000000000000400000000000000000000002000000000000000000080008000000000000800000001000000000000000000000000000000000100000000000000000000000084000000000000000000000000000000000004000001100000000000002002200000800000080000000a002000004000000000010000100000000000000000000001000000020000000200000000000800000400000200000000000000000000020000002020000",
      "type": "0x2",
      "transactionHash": "0x28d8a25f13f59d0102ddd2a4d7d0d810c72292fbebd9f467c550dd1c56deff3c",
      "transactionIndex": "0x1",
      "blockHash": "0x1e94eaf4c6c44837b7ee9b7462eb6ec3935fd169a03b2c7d869cbf53b68ddb44",
      "blockNumber": "0xe6e05b1",
      "gasUsed": "0x4da0e",
      "effectiveGasPrice": "0x184e2b0",
      "from": "0x37b5559c63821820eaac5ff770e5c421d6a2676b",
      "to": "0x577e289f663a4e29c231135c09d6a0713ce7aaff",
      "contractAddress": null,
      "gasUsedForL1": "0xd445",
      "l1BlockNumber": "0x138ff12"
    }
  ],
  "libraries": [],
  "pending": [],
  "returns": {},
  "timestamp": 1723465686,
  "chain": 42161,
  "commit": "875bbc3"
}