{
  "transactions": [
    {
      "hash": "0x7dcf24fd45f9f80670fc4b10b140db8606b0906ea122c345960c839d31d9a28c",
      "transactionType": "CALL",
      "contractName": null,
      "contractAddress": "0xda10009cbd5d07dd0cecc66161fc93d7c9000da1",
      "function": "approve(address,uint256)",
      "arguments": [
        "0xF67F9B1042A7f419c2C0259C983FB1f75f981fD4",
        "115792089237316195423570985008687907853269984665640564039457584007913129639935"
      ],
      "transaction": {
        "from": "0x37b5559c63821820eaac5ff770e5c421d6a2676b",
        "to": "0xda10009cbd5d07dd0cecc66161fc93d7c9000da1",
        "gas": "0x13014",
        "value": "0x0",
        "input": "0x095ea7b3000000000000000000000000f67f9b1042a7f419c2c0259c983fb1f75f981fd4ffffffffffffffffffffffffffffffffffffffffffffffffffffffffffffffff",
        "nonce": "0x0",
        "chainId": "0xa4b1"
      },
      "additionalContracts": [],
      "isFixedGasLimit": false
    },
    {
      "hash": "0x57cfe3160199f9aaf6f3207a4b4b25ad4420cc59a7f647cf6ec705786e3f62a4",
      "transactionType": "CALL",
      "contractName": null,
      "contractAddress": "0xf67f9b1042a7f419c2c0259c983fb1f75f981fd4",
      "function": "deposit(uint256,address)",
      "arguments": [
        "1000000000000000000",
        "0x37B5559c63821820EaAC5FF770e5C421d6A2676B"
      ],
      "transaction": {
        "from": "0x37b5559c63821820eaac5ff770e5c421d6a2676b",
        "to": "0xf67f9b1042a7f419c2c0259c983fb1f75f981fd4",
        "gas": "0x2dbb7",
        "value": "0x0",
        "input": "0x6e553f650000000000000000000000000000000000000000000000000de0b6b3a764000000000000000000000000000037b5559c63821820eaac5ff770e5c421d6a2676b",
        "nonce": "0x1",
        "chainId": "0xa4b1"
      },
      "additionalContracts": [],
      "isFixedGasLimit": false
    },
    {
      "hash": "0xf835806f08f79b85bc1ebe58d1d2909fe181192557a536a0bc58a666bde2522b",
      "transactionType": "CALL",
      "contractName": null,
      "contractAddress": "0xe45ee4046bd755330d555dfe4ada7839a3eeb926",
      "function": "enableCollateral(address,address)",
      "arguments": [
        "0x37B5559c63821820EaAC5FF770e5C421d6A2676B",
        "0xF67F9B1042A7f419c2C0259C983FB1f75f981fD4"
      ],
      "transaction": {
        "from": "0x37b5559c63821820eaac5ff770e5c421d6a2676b",
        "to": "0xe45ee4046bd755330d555dfe4ada7839a3eeb926",
        "gas": "0x1deb0",
        "value": "0x0",
        "input": "0xd44fee5a00000000000000000000000037b5559c63821820eaac5ff770e5c421d6a2676b000000000000000000000000f67f9b1042a7f419c2c0259c983fb1f75f981fd4",
        "nonce": "0x2",
        "chainId": "0xa4b1"
      },
      "additionalContracts": [],
      "isFixedGasLimit": false
    },
    {
      "hash": "0xd8b138838929f1d9cf2f1e1e787779b459f1d35962b3fd936f165f018d37915f",
      "transactionType": "CALL",
      "contractName": null,
      "contractAddress": "0xe45ee4046bd755330d555dfe4ada7839a3eeb926",
      "function": "enableController(address,address)",
      "arguments": [
        "0x37B5559c63821820EaAC5FF770e5C421d6A2676B",
        "0x577e289F663A4E29c231135c09d6a0713ce7AAff"
      ],
      "transaction": {
        "from": "0x37b5559c63821820eaac5ff770e5c421d6a2676b",
        "to": "0xe45ee4046bd755330d555dfe4ada7839a3eeb926",
        "gas": "0x26810",
        "value": "0x0",
        "input": "0xc368516c00000000000000000000000037b5559c63821820eaac5ff770e5c421d6a2676b000000000000000000000000577e289f663a4e29c231135c09d6a0713ce7aaff",
        "nonce": "0x3",
        "chainId": "0xa4b1"
      },
      "additionalContracts": [],
      "isFixedGasLimit": false
    }
  ],
  "receipts": [
    {
      "status": "0x1",
      "cumulativeGasUsed": "0xb5c7d",
      "logs": [
        {
          "address": "0xda10009cbd5d07dd0cecc66161fc93d7c9000da1",
          "topics": [
            "0x8c5be1e5ebec7d5bd14f71427d1e84f3dd0314c0f7b2291e5b200ac8c7c3b925",
            "0x00000000000000000000000037b5559c63821820eaac5ff770e5c421d6a2676b",
            "0x000000000000000000000000f67f9b1042a7f419c2c0259c983fb1f75f981fd4"
          ],
          "data": "0xffffffffffffffffffffffffffffffffffffffffffffffffffffffffffffffff",
          "blockHash": "0xa4ab81e62b2088296860797ddea298bb28bfdef25ab722559b2a9d57579885f5",
          "blockNumber": "0xe4e458d",
          "transactionHash": "0x7dcf24fd45f9f80670fc4b10b140db8606b0906ea122c345960c839d31d9a28c",
          "transactionIndex": "0x5",
          "logIndex": "0xa",
          "removed": false
        }
      ],
      "logsBloom": "0x00000000000000000008000000000000000000040000000800000000000000000000000000000000000000000000000000000000000000000000000000200000000000010000000001000010000000000000000000000000000000000000000000000000000000000000000000000000000000000000000000000000000000000000000000000000000000000000000000000000000000000000000000000000020000000000000000000000000000000000000000000000000000000000000000008000000000000000000000000000200000000000000000000000000000000010000020000000000000000000000000000000000000000000000000000000",
      "type": "0x2",
      "transactionHash": "0x7dcf24fd45f9f80670fc4b10b140db8606b0906ea122c345960c839d31d9a28c",
      "transactionIndex": "0x5",
      "blockHash": "0xa4ab81e62b2088296860797ddea298bb28bfdef25ab722559b2a9d57579885f5",
      "blockNumber": "0xe4e458d",
      "gasUsed": "0xd829",
      "effectiveGasPrice": "0xa6fa18",
      "from": "0x37b5559c63821820eaac5ff770e5c421d6a2676b",
      "to": "0xda10009cbd5d07dd0cecc66161fc93d7c9000da1",
      "contractAddress": null,
      "gasUsedForL1": "0x22e8",
      "l1BlockNumber": "0x138557a"
    },
    {
      "status": "0x1",
      "cumulativeGasUsed": "0x43cd4",
      "logs": [
        {
          "address": "0xe45ee4046bd755330d555dfe4ada7839a3eeb926",
          "topics": [
            "0x6e9738e5aa38fe1517adbb480351ec386ece82947737b18badbcad1e911133ec",
            "0x000000000000000000000000f67f9b1042a7f419c2c0259c983fb1f75f981fd4",
            "0x37b5559c63821820eaac5ff770e5c421d6a26700000000000000000000000000",
            "0x000000000000000000000000f67f9b1042a7f419c2c0259c983fb1f75f981fd4"
          ],
          "data": "0x00000000000000000000000037b5559c63821820eaac5ff770e5c421d6a2676b6e553f6500000000000000000000000000000000000000000000000000000000",
          "blockHash": "0xaa2c14c08cd456fb074319b7d72ee975cf7d1b09e99e15a3865deeea99e04e77",
          "blockNumber": "0xe4e45ab",
          "transactionHash": "0x57cfe3160199f9aaf6f3207a4b4b25ad4420cc59a7f647cf6ec705786e3f62a4",
          "transactionIndex": "0x2",
          "logIndex": "0x3",
          "removed": false
        },
        {
          "address": "0xda10009cbd5d07dd0cecc66161fc93d7c9000da1",
          "topics": [
            "0xddf252ad1be2c89b69c2b068fc378daa952ba7f163c4a11628f55a4df523b3ef",
            "0x00000000000000000000000037b5559c63821820eaac5ff770e5c421d6a2676b",
            "0x000000000000000000000000f67f9b1042a7f419c2c0259c983fb1f75f981fd4"
          ],
          "data": "0x0000000000000000000000000000000000000000000000000de0b6b3a7640000",
          "blockHash": "0xaa2c14c08cd456fb074319b7d72ee975cf7d1b09e99e15a3865deeea99e04e77",
          "blockNumber": "0xe4e45ab",
          "transactionHash": "0x57cfe3160199f9aaf6f3207a4b4b25ad4420cc59a7f647cf6ec705786e3f62a4",
          "transactionIndex": "0x2",
          "logIndex": "0x4",
          "removed": false
        },
        {
          "address": "0xf67f9b1042a7f419c2c0259c983fb1f75f981fd4",
          "topics": [
            "0xddf252ad1be2c89b69c2b068fc378daa952ba7f163c4a11628f55a4df523b3ef",
            "0x0000000000000000000000000000000000000000000000000000000000000000",
            "0x00000000000000000000000037b5559c63821820eaac5ff770e5c421d6a2676b"
          ],
          "data": "0x0000000000000000000000000000000000000000000000000de0b6b3a7640000",
          "blockHash": "0xaa2c14c08cd456fb074319b7d72ee975cf7d1b09e99e15a3865deeea99e04e77",
          "blockNumber": "0xe4e45ab",
          "transactionHash": "0x57cfe3160199f9aaf6f3207a4b4b25ad4420cc59a7f647cf6ec705786e3f62a4",
          "transactionIndex": "0x2",
          "logIndex": "0x5",
          "removed": false
        },
        {
          "address": "0xf67f9b1042a7f419c2c0259c983fb1f75f981fd4",
          "topics": [
            "0xdcbc1c05240f31ff3ad067ef1ee35ce4997762752e3a095284754544f4c709d7",
            "0x00000000000000000000000037b5559c63821820eaac5ff770e5c421d6a2676b",
            "0x00000000000000000000000037b5559c63821820eaac5ff770e5c421d6a2676b"
          ],
          "data": "0x0000000000000000000000000000000000000000000000000de0b6b3a76400000000000000000000000000000000000000000000000000000de0b6b3a7640000",
          "blockHash": "0xaa2c14c08cd456fb074319b7d72ee975cf7d1b09e99e15a3865deeea99e04e77",
          "blockNumber": "0xe4e45ab",
          "transactionHash": "0x57cfe3160199f9aaf6f3207a4b4b25ad4420cc59a7f647cf6ec705786e3f62a4",
          "transactionIndex": "0x2",
          "logIndex": "0x6",
          "removed": false
        },
        {
          "address": "0xf67f9b1042a7f419c2c0259c983fb1f75f981fd4",
          "topics": [
            "0x80b61abbfc5f73cfe5cf93cec97a69ed20643dc6c6f1833b05a1560aa164e24c"
          ],
          "data": "0x0000000000000000000000000000000000000000000000001bc16d674ec80000000000000000000000000000000000000000000000000000000000000000000000000000000000000000000000000000000000000000000000000000000000000000000000000000000000000000000000000000000000001bc16d674ec800000000000000000000000000000000000000000000033b2e3c9fd0803ce800000000000000000000000000000000000000000000000000000000000000000000000000000000000000000000000000000000000000000000000000000066b20371",
          "blockHash": "0xaa2c14c08cd456fb074319b7d72ee975cf7d1b09e99e15a3865deeea99e04e77",
          "blockNumber": "0xe4e45ab",
          "transactionHash": "0x57cfe3160199f9aaf6f3207a4b4b25ad4420cc59a7f647cf6ec705786e3f62a4",
          "transactionIndex": "0x2",
          "logIndex": "0x7",
          "removed": false
        },
        {
          "address": "0xe45ee4046bd755330d555dfe4ada7839a3eeb926",
          "topics": [
            "0xaea973cfb51ea8ca328767d72f105b5b9d2360c65f5ac4110a2c4470434471c9",
            "0x000000000000000000000000f67f9b1042a7f419c2c0259c983fb1f75f981fd4"
          ],
          "data": "0x",
          "blockHash": "0xaa2c14c08cd456fb074319b7d72ee975cf7d1b09e99e15a3865deeea99e04e77",
          "blockNumber": "0xe4e45ab",
          "transactionHash": "0x57cfe3160199f9aaf6f3207a4b4b25ad4420cc59a7f647cf6ec705786e3f62a4",
          "transactionIndex": "0x2",
          "logIndex": "0x8",
          "removed": false
        }
      ],
      "logsBloom": "0x00000000000000000008000000000000000000040000000800000000000020000000000000000000000000000000000000000000000000000000000000000000000000410000000001000018000000400000000000000000004000000000000000000000020000000000000000000800080000000004008000000010000000000000000000000000000000001000000000000008000000000000000000000000000000000000000000000000000001000000000000020020000008000000800000008002000004000000000010000000200000000008000000001000000020000000000020000004800000000000000000000000000000000000000000020000",
      "type": "0x2",
      "transactionHash": "0x57cfe3160199f9aaf6f3207a4b4b25ad4420cc59a7f647cf6ec705786e3f62a4",
      "transactionIndex": "0x2",
      "blockHash": "0xaa2c14c08cd456fb074319b7d72ee975cf7d1b09e99e15a3865deeea99e04e77",
      "blockNumber": "0xe4e45ab",
      "gasUsed": "0x23549",
      "effectiveGasPrice": "0xa43328",
      "from": "0x37b5559c63821820eaac5ff770e5c421d6a2676b",
      "to": "0xf67f9b1042a7f419c2c0259c983fb1f75f981fd4",
      "contractAddress": null,
      "gasUsedForL1": "0x237f",
      "l1BlockNumber": "0x138557a"
    },
    {
      "status": "0x1",
      "cumulativeGasUsed": "0x20061b",
      "logs": [
        {
          "address": "0xe45ee4046bd755330d555dfe4ada7839a3eeb926",
          "topics": [
            "0x67cb2734834e775d6db886bf16ac03d7273b290223ee5363354b385ec5b643b0",
            "0x37b5559c63821820eaac5ff770e5c421d6a26700000000000000000000000000",
            "0x00000000000000000000000037b5559c63821820eaac5ff770e5c421d6a2676b"
          ],
          "data": "0x",
          "blockHash": "0x16fbf880c54d6e25c2841fe312a6e93d3be7448cfd07100e4840bb88a5b6fd38",
          "blockNumber": "0xe4e45b0",
          "transactionHash": "0xf835806f08f79b85bc1ebe58d1d2909fe181192557a536a0bc58a666bde2522b",
          "transactionIndex": "0xb",
          "logIndex": "0x1d",
          "removed": false
        },
        {
          "address": "0xe45ee4046bd755330d555dfe4ada7839a3eeb926",
          "topics": [
            "0xf022705c827017c972043d1984cfddc7958c9f4685b4d9ce8bd68696f4381cd2",
            "0x00000000000000000000000037b5559c63821820eaac5ff770e5c421d6a2676b",
            "0x000000000000000000000000f67f9b1042a7f419c2c0259c983fb1f75f981fd4"
          ],
          "data": "0x0000000000000000000000000000000000000000000000000000000000000001",
          "blockHash": "0x16fbf880c54d6e25c2841fe312a6e93d3be7448cfd07100e4840bb88a5b6fd38",
          "blockNumber": "0xe4e45b0",
          "transactionHash": "0xf835806f08f79b85bc1ebe58d1d2909fe181192557a536a0bc58a666bde2522b",
          "transactionIndex": "0xb",
          "logIndex": "0x1e",
          "removed": false
        }
      ],
      "logsBloom": "0x00000000000000000008000000000000000000040000000800000000000000000000000000020000000000040000000000000000000000000000000000000000000000010000000000000010000000000000000000000000000000000000000000000000000000000000000000000000000000004000008000000000000000000000000000002000000000001000000000000000000000000000000000000000000000000000000000020000000000000000000000000020000000000000000000008000000000000000000010000000000000000000000000001000000000000000000000000000800000000000000000000000000000000000000000100000",
      "type": "0x2",
      "transactionHash": "0xf835806f08f79b85bc1ebe58d1d2909fe181192557a536a0bc58a666bde2522b",
      "transactionIndex": "0xb",
      "blockHash": "0x16fbf880c54d6e25c2841fe312a6e93d3be7448cfd07100e4840bb88a5b6fd38",
      "blockNumber": "0xe4e45b0",
      "gasUsed": "0x14e03",
      "effectiveGasPrice": "0xa3e508",
      "from": "0x37b5559c63821820eaac5ff770e5c421d6a2676b",
      "to": "0xe45ee4046bd755330d555dfe4ada7839a3eeb926",
      "contractAddress": null,
      "gasUsedForL1": "0x2390",
      "l1BlockNumber": "0x138557b"
    },
    {
      "status": "0x1",
      "cumulativeGasUsed": "0x2a5036",
      "logs": [
        {
          "address": "0xe45ee4046bd755330d555dfe4ada7839a3eeb926",
          "topics": [
            "0x9919d437ee612d4ec7bba88a7d9bc4fc36a0a23608ad6259252711a46b708af9",
            "0x00000000000000000000000037b5559c63821820eaac5ff770e5c421d6a2676b",
            "0x000000000000000000000000577e289f663a4e29c231135c09d6a0713ce7aaff"
          ],
          "data": "0x0000000000000000000000000000000000000000000000000000000000000001",
          "blockHash": "0x8cd3f328d5fe6f3e58ef36701a044d2db92cb909dc339c87251f773647bd1e28",
          "blockNumber": "0xe4e45ce",
          "transactionHash": "0xd8b138838929f1d9cf2f1e1e787779b459f1d35962b3fd936f165f018d37915f",
          "transactionIndex": "0x14",
          "logIndex": "0x2a",
          "removed": false
        },
        {
          "address": "0xe45ee4046bd755330d555dfe4ada7839a3eeb926",
          "topics": [
            "0x889a4d4628b31342e420737e2aeb45387087570710d26239aa8a5f13d3e829d4",
            "0x00000000000000000000000037b5559c63821820eaac5ff770e5c421d6a2676b",
            "0x000000000000000000000000577e289f663a4e29c231135c09d6a0713ce7aaff"
          ],
          "data": "0x",
          "blockHash": "0x8cd3f328d5fe6f3e58ef36701a044d2db92cb909dc339c87251f773647bd1e28",
          "blockNumber": "0xe4e45ce",
          "transactionHash": "0xd8b138838929f1d9cf2f1e1e787779b459f1d35962b3fd936f165f018d37915f",
          "transactionIndex": "0x14",
          "logIndex": "0x2b",
          "removed": false
        }
      ],
      "logsBloom": "0x00000000000000000000000000000000020000080000000000000000000000000000000000000000000000000000000000000000000000000000000000000000000000010000000000000010000000000000020000000000000000000000000000000000000000000000000000000000000000000000000000000000000000000000000000000000000000001000000000000000000000000000000000000000000000000000000000000000000010000000000000000002000000000000000000008000000000000000000010000000000000000000000000001000000000000000000000000000000000400000000000000004000000000020400000000000",
      "type": "0x2",
      "transactionHash": "0xd8b138838929f1d9cf2f1e1e787779b459f1d35962b3fd936f165f018d37915f",
      "transactionIndex": "0x14",
      "blockHash": "0x8cd3f328d5fe6f3e58ef36701a044d2db92cb909dc339c87251f773647bd1e28",
      "blockNumber": "0xe4e45ce",
      "gasUsed": "0x1654b",
      "effectiveGasPrice": "0xa06a68",
      "from": "0x37b5559c63821820eaac5ff770e5c421d6a2676b",
      "to": "0xe45ee4046bd755330d555dfe4ada7839a3eeb926",
      "contractAddress": null,
      "gasUsedForL1": "0x2455",
      "l1BlockNumber": "0x138557b"
    }
  ],
  "libraries": [],
  "pending": [],
  "returns": {},
  "timestamp": 1722942330,
  "chain": 42161,
  "commit": "ea47789"
}