{
  "transactions": [
    {
      "hash": "0x825ad8569763f5e36579d36a156944bac764efd42c5cca06c36b1cdd7481c4c1",
      "transactionType": "CALL",
      "contractName": null,
      "contractAddress": "0x577e289f663a4e29c231135c09d6a0713ce7aaff",
      "function": "borrow(uint256,address)",
      "arguments": [
        "500000",
        "0x37B5559c63821820EaAC5FF770e5C421d6A2676B"
      ],
      "transaction": {
        "from": "0x37b5559c63821820eaac5ff770e5c421d6a2676b",
        "to": "0x577e289f663a4e29c231135c09d6a0713ce7aaff",
        "gas": "0x56360",
        "value": "0x0",
        "input": "0x4b3fd148000000000000000000000000000000000000000000000000000000000007a12000000000000000000000000037b5559c63821820eaac5ff770e5c421d6a2676b",
        "nonce": "0x25",
        "chainId": "0xa4b1"
      },
      "additionalContracts": [],
      "isFixedGasLimit": false
    }
  ],
  "receipts": [
    {
      "status": "0x1",
      "cumulativeGasUsed": "0xd6d13",
      "logs": [
        {
          "address": "0xe45ee4046bd755330d555dfe4ada7839a3eeb926",
          "topics": [
            "0x6e9738e5aa38fe1517adbb480351ec386ece82947737b18badbcad1e911133ec",
            "0x000000000000000000000000577e289f663a4e29c231135c09d6a0713ce7aaff",
            "0x37b5559c63821820eaac5ff770e5c421d6a26700000000000000000000000000",
            "0x000000000000000000000000577e289f663a4e29c231135c09d6a0713ce7aaff"
          ],
          "data": "0x00000000000000000000000037b5559c63821820eaac5ff770e5c421d6a2676b4b3fd14800000000000000000000000000000000000000000000000000000000",
          "blockHash": "0x0a0eb2aa2885648c05f55d0c4f6733137516deb0adae130db3a095e5cea1a912",
          "blockNumber": "0xe788e95",
          "transactionHash": "0x825ad8569763f5e36579d36a156944bac764efd42c5cca06c36b1cdd7481c4c1",
          "transactionIndex": "0x5",
          "logIndex": "0xf",
          "removed": false
        },
        {
          "address": "0x577e289f663a4e29c231135c09d6a0713ce7aaff",
          "topics": [
            "0x5e804d42ae3b860f881d11cb44a4bb1f2f0d5b3d081f5539a32d6f97b629d978",
            "0x00000000000000000000000037b5559c63821820eaac5ff770e5c421d6a2676b"
          ],
          "data": "0x0000000000000000000000000000000000000000000000000000000000000008",
          "blockHash": "0x0a0eb2aa2885648c05f55d0c4f6733137516deb0adae130db3a095e5cea1a912",
          "blockNumber": "0xe788e95",
          "transactionHash": "0x825ad8569763f5e36579d36a156944bac764efd42c5cca06c36b1cdd7481c4c1",
          "transactionIndex": "0x5",
          "logIndex": "0x10",
          "removed": false
        },
        {
          "address": "0x577e289f663a4e29c231135c09d6a0713ce7aaff",
          "topics": [
            "0xcbc04eca7e9da35cb1393a6135a199ca52e450d5e9251cbd99f7847d33a36750",
            "0x00000000000000000000000037b5559c63821820eaac5ff770e5c421d6a2676b"
          ],
          "data": "0x000000000000000000000000000000000000000000000000000000000007a120",
          "blockHash": "0x0a0eb2aa2885648c05f55d0c4f6733137516deb0adae130db3a095e5cea1a912",
          "blockNumber": "0xe788e95",
          "transactionHash": "0x825ad8569763f5e36579d36a156944bac764efd42c5cca06c36b1cdd7481c4c1",
          "transactionIndex": "0x5",
          "logIndex": "0x11",
          "removed": false
        },
        {
          "address": "0xe486a6141116e47a8b6a85c2bd191225af941b6a",
          "topics": [
            "0xddf252ad1be2c89b69c2b068fc378daa952ba7f163c4a11628f55a4df523b3ef",
            "0x0000000000000000000000000000000000000000000000000000000000000000",
            "0x00000000000000000000000037b5559c63821820eaac5ff770e5c421d6a2676b"
          ],
          "data": "0x000000000000000000000000000000000000000000000000000000000007a128",
          "blockHash": "0x0a0eb2aa2885648c05f55d0c4f6733137516deb0adae130db3a095e5cea1a912",
          "blockNumber": "0xe788e95",
          "transactionHash": "0x825ad8569763f5e36579d36a156944bac764efd42c5cca06c36b1cdd7481c4c1",
          "transactionIndex": "0x5",
          "logIndex": "0x12",
          "removed": false
        },
        {
          "address": "0xaf88d065e77c8cc2239327c5edb3a432268e5831",
          "topics": [
            "0xddf252ad1be2c89b69c2b068fc378daa952ba7f163c4a11628f55a4df523b3ef",
            "0x000000000000000000000000577e289f663a4e29c231135c09d6a0713ce7aaff",
            "0x00000000000000000000000037b5559c63821820eaac5ff770e5c421d6a2676b"
          ],
          "data": "0x000000000000000000000000000000000000000000000000000000000007a120",
          "blockHash": "0x0a0eb2aa2885648c05f55d0c4f6733137516deb0adae130db3a095e5cea1a912",
          "blockNumber": "0xe788e95",
          "transactionHash": "0x825ad8569763f5e36579d36a156944bac764efd42c5cca06c36b1cdd7481c4c1",
          "transactionIndex": "0x5",
          "logIndex": "0x13",
          "removed": false
        },
        {
          "address": "0xe45ee4046bd755330d555dfe4ada7839a3eeb926",
          "topics": [
            "0x889a4d4628b31342e420737e2aeb45387087570710d26239aa8a5f13d3e829d4",
            "0x00000000000000000000000037b5559c63821820eaac5ff770e5c421d6a2676b",
            "0x000000000000000000000000577e289f663a4e29c231135c09d6a0713ce7aaff"
          ],
          "data": "0x",
          "blockHash": "0x0a0eb2aa2885648c05f55d0c4f6733137516deb0adae130db3a095e5cea1a912",
          "blockNumber": "0xe788e95",
          "transactionHash": "0x825ad8569763f5e36579d36a156944bac764efd42c5cca06c36b1cdd7481c4c1",
          "transactionIndex": "0x5",
          "logIndex": "0x14",
          "removed": false
        },
        {
          "address": "0x577e289f663a4e29c231135c09d6a0713ce7aaff",
          "topics": [
            "0x80b61abbfc5f73cfe5cf93cec97a69ed20643dc6c6f1833b05a1560aa164e24c"
          ],
          "data": "0x0000000000000000000000000000000000000000000000000000000001d908c6000000000000000000000000000000000000000000000000000000000016e3d2000000000000000000000000000000000000000000000000000000000000000d0000000000000000000000000000000000000000000000000000000001c17c6a0000000000000000000000000000000000000000033b5abdd936045f52b55c60000000000000000000000000000000000000000000000000040fe58f919bd5380000000000000000000000000000000000000000000000000000000066bca77e",
          "blockHash": "0x0a0eb2aa2885648c05f55d0c4f6733137516deb0adae130db3a095e5cea1a912",
          "blockNumber": "0xe788e95",
          "transactionHash": "0x825ad8569763f5e36579d36a156944bac764efd42c5cca06c36b1cdd7481c4c1",
          "transactionIndex": "0x5",
          "logIndex": "0x15",
          "removed": false
        },
        {
          "address": "0xe45ee4046bd755330d555dfe4ada7839a3eeb926",
          "topics": [
            "0xaea973cfb51ea8ca328767d72f105b5b9d2360c65f5ac4110a2c4470434471c9",
            "0x000000000000000000000000577e289f663a4e29c231135c09d6a0713ce7aaff"
          ],
          "data": "0x",
          "blockHash": "0x0a0eb2aa2885648c05f55d0c4f6733137516deb0adae130db3a095e5cea1a912",
          "blockNumber": "0xe788e95",
          "transactionHash": "0x825ad8569763f5e36579d36a156944bac764efd42c5cca06c36b1cdd7481c4c1",
          "transactionIndex": "0x5",
          "logIndex": "0x16",
          "removed": false
        }
      ],
      "logsBloom": "0x0000000000000000000000000000000084000008000000000000000000022000000000000000000000000000000000000000000100000000000000000000000000000001000000000000001800000000000002000000000000400000000000000000000002000000000000000000080008000000000000800040001000000000000000000000000000000000100200000000000000000000084000000000000000000000000000000000004000001100000000000002002200000800001080000000a002000004000000000010000100000000000000000000001000000020000000200000000000800000400000200000000000000000000020000002020000",
      "type": "0x2",
      "transactionHash": "0x825ad8569763f5e36579d36a156944bac764efd42c5cca06c36b1cdd7481c4c1",
      "transactionIndex": "0x5",
      "blockHash": "0x0a0eb2aa2885648c05f55d0c4f6733137516deb0adae130db3a095e5cea1a912",
      "blockNumber": "0xe788e95",
      "gasUsed": "0x3db31",
      "effectiveGasPrice": "0xbc398c0",
      "from": "0x37b5559c63821820eaac5ff770e5c421d6a2676b",
      "to": "0x577e289f663a4e29c231135c09d6a0713ce7aaff",
      "contractAddress": null,
      "gasUsedForL1": "0x33a",
      "l1BlockNumber": "0x1393777"
    }
  ],
  "libraries": [],
  "pending": [],
  "returns": {},
  "timestamp": 1723639679,
  "chain": 42161,
  "commit": "f633fa0"
}