{
  "transactions": [
    {
      "hash": "0x0349d69f994f313b1be084942d275a3930ab5dabbe4e93f5b9d9cd421af6c6d5",
      "transactionType": "CALL",
      "contractName": null,
      "contractAddress": "0xda10009cbd5d07dd0cecc66161fc93d7c9000da1",
      "function": "approve(address,uint256)",
      "arguments": [
        "0xF67F9B1042A7f419c2C0259C983FB1f75f981fD4",
        "115792089237316195423570985008687907853269984665640564039457584007913129639935"
      ],
      "transaction": {
        "from": "0x37b5559c63821820eaac5ff770e5c421d6a2676b",
        "to": "0xda10009cbd5d07dd0cecc66161fc93d7c9000da1",
        "gas": "0x255c0",
        "value": "0x0",
        "input": "0x095ea7b3000000000000000000000000f67f9b1042a7f419c2c0259c983fb1f75f981fd4ffffffffffffffffffffffffffffffffffffffffffffffffffffffffffffffff",
        "nonce": "0x2d",
        "chainId": "0xa4b1"
      },
      "additionalContracts": [],
      "isFixedGasLimit": false
    },
    {
      "hash": "0x28d93f9291ae1592e4a67e87b909892cd7f68066837f6c32056b76beb527efbb",
      "transactionType": "CALL",
      "contractName": null,
      "contractAddress": "0xf67f9b1042a7f419c2c0259c983fb1f75f981fd4",
      "function": "deposit(uint256,address)",
      "arguments": [
        "1000000000000000000",
        "0x37B5559c63821820EaAC5FF770e5C421d6A2676B"
      ],
      "transaction": {
        "from": "0x37b5559c63821820eaac5ff770e5c421d6a2676b",
        "to": "0xf67f9b1042a7f419c2c0259c983fb1f75f981fd4",
        "gas": "0x48fbd",
        "value": "0x0",
        "input": "0x6e553f650000000000000000000000000000000000000000000000000de0b6b3a764000000000000000000000000000037b5559c63821820eaac5ff770e5c421d6a2676b",
        "nonce": "0x2e",
        "chainId": "0xa4b1"
      },
      "additionalContracts": [],
      "isFixedGasLimit": false
    },
    {
      "hash": "0x2968dfa42b42718239e2f9350ee85a4d258f16ba7085d95fc3820cdc9e2b85ce",
      "transactionType": "CALL",
      "contractName": null,
      "contractAddress": "0xe45ee4046bd755330d555dfe4ada7839a3eeb926",
      "function": "enableCollateral(address,address)",
      "arguments": [
        "0x37B5559c63821820EaAC5FF770e5C421d6A2676B",
        "0xF67F9B1042A7f419c2C0259C983FB1f75f981fD4"
      ],
      "transaction": {
        "from": "0x37b5559c63821820eaac5ff770e5c421d6a2676b",
        "to": "0xe45ee4046bd755330d555dfe4ada7839a3eeb926",
        "gas": "0x329cd",
        "value": "0x0",
        "input": "0xd44fee5a00000000000000000000000037b5559c63821820eaac5ff770e5c421d6a2676b000000000000000000000000f67f9b1042a7f419c2c0259c983fb1f75f981fd4",
        "nonce": "0x2f",
        "chainId": "0xa4b1"
      },
      "additionalContracts": [],
      "isFixedGasLimit": false
    },
    {
      "hash": "0xc7f4c04b7e4f27a2cbbcecd60678577c1643fef53aca036c0395ea0e0bf61184",
      "transactionType": "CALL",
      "contractName": null,
      "contractAddress": "0xe45ee4046bd755330d555dfe4ada7839a3eeb926",
      "function": "enableController(address,address)",
      "arguments": [
        "0x37B5559c63821820EaAC5FF770e5C421d6A2676B",
        "0x577e289F663A4E29c231135c09d6a0713ce7AAff"
      ],
      "transaction": {
        "from": "0x37b5559c63821820eaac5ff770e5c421d6a2676b",
        "to": "0xe45ee4046bd755330d555dfe4ada7839a3eeb926",
        "gas": "0x32993",
        "value": "0x0",
        "input": "0xc368516c00000000000000000000000037b5559c63821820eaac5ff770e5c421d6a2676b000000000000000000000000577e289f663a4e29c231135c09d6a0713ce7aaff",
        "nonce": "0x30",
        "chainId": "0xa4b1"
      },
      "additionalContracts": [],
      "isFixedGasLimit": false
    },
    {
      "hash": "0x1f49c8ddfe44e151f68fd3821f9a4f592a78728437a7e658202db61b8d9c6865",
      "transactionType": "CALL",
      "contractName": null,
      "contractAddress": "0x577e289f663a4e29c231135c09d6a0713ce7aaff",
      "function": "borrow(uint256,address)",
      "arguments": [
        "500000",
        "0x37B5559c63821820EaAC5FF770e5C421d6A2676B"
      ],
      "transaction": {
        "from": "0x37b5559c63821820eaac5ff770e5c421d6a2676b",
        "to": "0x577e289f663a4e29c231135c09d6a0713ce7aaff",
        "gas": "0x599c3",
        "value": "0x0",
        "input": "0x4b3fd148000000000000000000000000000000000000000000000000000000000007a12000000000000000000000000037b5559c63821820eaac5ff770e5c421d6a2676b",
        "nonce": "0x31",
        "chainId": "0xa4b1"
      },
      "additionalContracts": [],
      "isFixedGasLimit": false
    }
  ],
  "receipts": [
    {
      "status": "0x1",
      "cumulativeGasUsed": "0xeb662",
      "logs": [
        {
          "address": "0xda10009cbd5d07dd0cecc66161fc93d7c9000da1",
          "topics": [
            "0x8c5be1e5ebec7d5bd14f71427d1e84f3dd0314c0f7b2291e5b200ac8c7c3b925",
            "0x00000000000000000000000037b5559c63821820eaac5ff770e5c421d6a2676b",
            "0x000000000000000000000000f67f9b1042a7f419c2c0259c983fb1f75f981fd4"
          ],
          "data": "0xffffffffffffffffffffffffffffffffffffffffffffffffffffffffffffffff",
          "blockHash": "0x1accd8f3eb93c73d55b32c4c7ba5589ae444a2227f7a92d3f05462762c9fcdea",
          "blockNumber": "0xe9dcdca",
          "transactionHash": "0x0349d69f994f313b1be084942d275a3930ab5dabbe4e93f5b9d9cd421af6c6d5",
          "transactionIndex": "0x5",
          "logIndex": "0x7",
          "removed": false
        }
      ],
      "logsBloom": "0x00000000000000000008000000000000000000040000000800000000000000000000000000000000000000000000000000000000000000000000000000200000000000010000000001000010000000000000000000000000000000000000000000000000000000000000000000000000000000000000000000000000000000000000000000000000000000000000000000000000000000000000000000000000020000000000000000000000000000000000000000000000000000000000000000008000000000000000000000000000200000000000000000000000000000000010000020000000000000000000000000000000000000000000000000000000",
      "type": "0x2",
      "transactionHash": "0x0349d69f994f313b1be084942d275a3930ab5dabbe4e93f5b9d9cd421af6c6d5",
      "transactionIndex": "0x5",
      "blockHash": "0x1accd8f3eb93c73d55b32c4c7ba5589ae444a2227f7a92d3f05462762c9fcdea",
      "blockNumber": "0xe9dcdca",
      "gasUsed": "0x176ed",
      "effectiveGasPrice": "0x98ec70",
      "from": "0x37b5559c63821820eaac5ff770e5c421d6a2676b",
      "to": "0xda10009cbd5d07dd0cecc66161fc93d7c9000da1",
      "contractAddress": null,
      "gasUsedForL1": "0x10f68",
      "l1BlockNumber": "0x139fe33"
    },
    {
      "status": "0x1",
      "cumulativeGasUsed": "0x1880e6",
      "logs": [
        {
          "address": "0xe45ee4046bd755330d555dfe4ada7839a3eeb926",
          "topics": [
            "0x6e9738e5aa38fe1517adbb480351ec386ece82947737b18badbcad1e911133ec",
            "0x000000000000000000000000f67f9b1042a7f419c2c0259c983fb1f75f981fd4",
            "0x37b5559c63821820eaac5ff770e5c421d6a26700000000000000000000000000",
            "0x000000000000000000000000f67f9b1042a7f419c2c0259c983fb1f75f981fd4"
          ],
          "data": "0x00000000000000000000000037b5559c63821820eaac5ff770e5c421d6a2676b6e553f6500000000000000000000000000000000000000000000000000000000",
          "blockHash": "0xee1d76198229c0d2e510c35a07fdf97f0db132bf82a68bdd03474d76c3239f3c",
          "blockNumber": "0xe9dcde9",
          "transactionHash": "0x28d93f9291ae1592e4a67e87b909892cd7f68066837f6c32056b76beb527efbb",
          "transactionIndex": "0x5",
          "logIndex": "0x11",
          "removed": false
        },
        {
          "address": "0xda10009cbd5d07dd0cecc66161fc93d7c9000da1",
          "topics": [
            "0xddf252ad1be2c89b69c2b068fc378daa952ba7f163c4a11628f55a4df523b3ef",
            "0x00000000000000000000000037b5559c63821820eaac5ff770e5c421d6a2676b",
            "0x000000000000000000000000f67f9b1042a7f419c2c0259c983fb1f75f981fd4"
          ],
          "data": "0x0000000000000000000000000000000000000000000000000de0b6b3a7640000",
          "blockHash": "0xee1d76198229c0d2e510c35a07fdf97f0db132bf82a68bdd03474d76c3239f3c",
          "blockNumber": "0xe9dcde9",
          "transactionHash": "0x28d93f9291ae1592e4a67e87b909892cd7f68066837f6c32056b76beb527efbb",
          "transactionIndex": "0x5",
          "logIndex": "0x12",
          "removed": false
        },
        {
          "address": "0xf67f9b1042a7f419c2c0259c983fb1f75f981fd4",
          "topics": [
            "0xddf252ad1be2c89b69c2b068fc378daa952ba7f163c4a11628f55a4df523b3ef",
            "0x0000000000000000000000000000000000000000000000000000000000000000",
            "0x00000000000000000000000037b5559c63821820eaac5ff770e5c421d6a2676b"
          ],
          "data": "0x0000000000000000000000000000000000000000000000000de0b566450f9827",
          "blockHash": "0xee1d76198229c0d2e510c35a07fdf97f0db132bf82a68bdd03474d76c3239f3c",
          "blockNumber": "0xe9dcde9",
          "transactionHash": "0x28d93f9291ae1592e4a67e87b909892cd7f68066837f6c32056b76beb527efbb",
          "transactionIndex": "0x5",
          "logIndex": "0x13",
          "removed": false
        },
        {
          "address": "0xf67f9b1042a7f419c2c0259c983fb1f75f981fd4",
          "topics": [
            "0xdcbc1c05240f31ff3ad067ef1ee35ce4997762752e3a095284754544f4c709d7",
            "0x00000000000000000000000037b5559c63821820eaac5ff770e5c421d6a2676b",
            "0x00000000000000000000000037b5559c63821820eaac5ff770e5c421d6a2676b"
          ],
          "data": "0x0000000000000000000000000000000000000000000000000de0b6b3a76400000000000000000000000000000000000000000000000000000de0b566450f9827",
          "blockHash": "0xee1d76198229c0d2e510c35a07fdf97f0db132bf82a68bdd03474d76c3239f3c",
          "blockNumber": "0xe9dcde9",
          "transactionHash": "0x28d93f9291ae1592e4a67e87b909892cd7f68066837f6c32056b76beb527efbb",
          "transactionIndex": "0x5",
          "logIndex": "0x14",
          "removed": false
        },
        {
          "address": "0xf67f9b1042a7f419c2c0259c983fb1f75f981fd4",
          "topics": [
            "0x80b61abbfc5f73cfe5cf93cec97a69ed20643dc6c6f1833b05a1560aa164e24c"
          ],
          "data": "0x000000000000000000000000000000000000000000000001571f66ff283bccf800000000000000000000000000000000000000000000000004db95941bc59071000000000000000000000000000000000000000000000000000003717b6e12fd0000000000000000000000000000000000000000000000015243f19dd8cfb52c0000000000000000000000000000000000000000033b4348437a262ddc421249000000000000000000000000000000000000000000000000012fd25df091b2880000000000000000000000000000000000000000000000000000000066c60564",
          "blockHash": "0xee1d76198229c0d2e510c35a07fdf97f0db132bf82a68bdd03474d76c3239f3c",
          "blockNumber": "0xe9dcde9",
          "transactionHash": "0x28d93f9291ae1592e4a67e87b909892cd7f68066837f6c32056b76beb527efbb",
          "transactionIndex": "0x5",
          "logIndex": "0x15",
          "removed": false
        },
        {
          "address": "0xe45ee4046bd755330d555dfe4ada7839a3eeb926",
          "topics": [
            "0xaea973cfb51ea8ca328767d72f105b5b9d2360c65f5ac4110a2c4470434471c9",
            "0x000000000000000000000000f67f9b1042a7f419c2c0259c983fb1f75f981fd4"
          ],
          "data": "0x",
          "blockHash": "0xee1d76198229c0d2e510c35a07fdf97f0db132bf82a68bdd03474d76c3239f3c",
          "blockNumber": "0xe9dcde9",
          "transactionHash": "0x28d93f9291ae1592e4a67e87b909892cd7f68066837f6c32056b76beb527efbb",
          "transactionIndex": "0x5",
          "logIndex": "0x16",
          "removed": false
        }
      ],
      "logsBloom": "0x00000000000000000008000000000000000000040000000800000000000020000000000000000000000000000000000000000000000000000000000000000000000000410000000001000018000000400000000000000000004000000000000000000000020000000000000000000800080000000004008000000010000000000000000000000000000000001000000000000008000000000000000000000000000000000000000000000000000001000000000000020020000008000000800000008002000004000000000010000000200000000008000000001000000020000000000020000004800000000000000000000000000000000000000000020000",
      "type": "0x2",
      "transactionHash": "0x28d93f9291ae1592e4a67e87b909892cd7f68066837f6c32056b76beb527efbb",
      "transactionIndex": "0x5",
      "blockHash": "0xee1d76198229c0d2e510c35a07fdf97f0db132bf82a68bdd03474d76c3239f3c",
      "blockNumber": "0xe9dcde9",
      "gasUsed": "0x30736",
      "effectiveGasPrice": "0x989680",
      "from": "0x37b5559c63821820eaac5ff770e5c421d6a2676b",
      "to": "0xf67f9b1042a7f419c2c0259c983fb1f75f981fd4",
      "contractAddress": null,
      "gasUsedForL1": "0x11001",
      "l1BlockNumber": "0x139fe34"
    },
    {
      "status": "0x1",
      "cumulativeGasUsed": "0x167eae",
      "logs": [
        {
          "address": "0xe45ee4046bd755330d555dfe4ada7839a3eeb926",
          "topics": [
            "0x889a4d4628b31342e420737e2aeb45387087570710d26239aa8a5f13d3e829d4",
            "0x00000000000000000000000037b5559c63821820eaac5ff770e5c421d6a2676b",
            "0x000000000000000000000000577e289f663a4e29c231135c09d6a0713ce7aaff"
          ],
          "data": "0x",
          "blockHash": "0xd18e7f4c95bc6a00a592cbc9d00c80162ee196df94835d3a660a19b44e1a7f29",
          "blockNumber": "0xe9dcdeb",
          "transactionHash": "0x2968dfa42b42718239e2f9350ee85a4d258f16ba7085d95fc3820cdc9e2b85ce",
          "transactionIndex": "0x6",
          "logIndex": "0xe",
          "removed": false
        }
      ],
      "logsBloom": "0x00000000000000000000000000000000000000080000000000000000000000000000000000000000000000000000000000000000000000000000000000000000000000010000000000000010000000000000020000000000000000000000000000000000000000000000000000000000000000000000000000000000000000000000000000000000000000001000000000000000000000000000000000000000000000000000000000000000000010000000000000000002000000000000000000008000000000000000000010000000000000000000000000001000000000000000000000000000000000400000000000000000000000000020000000000000",
      "type": "0x2",
      "transactionHash": "0x2968dfa42b42718239e2f9350ee85a4d258f16ba7085d95fc3820cdc9e2b85ce",
      "transactionIndex": "0x6",
      "blockHash": "0xd18e7f4c95bc6a00a592cbc9d00c80162ee196df94835d3a660a19b44e1a7f29",
      "blockNumber": "0xe9dcdeb",
      "gasUsed": "0x207ab",
      "effectiveGasPrice": "0x989680",
      "from": "0x37b5559c63821820eaac5ff770e5c421d6a2676b",
      "to": "0xe45ee4046bd755330d555dfe4ada7839a3eeb926",
      "contractAddress": null,
      "gasUsedForL1": "0x11001",
      "l1BlockNumber": "0x139fe34"
    },
    {
      "status": "0x1",
      "cumulativeGasUsed": "0x207d5",
      "logs": [
        {
          "address": "0xe45ee4046bd755330d555dfe4ada7839a3eeb926",
          "topics": [
            "0x889a4d4628b31342e420737e2aeb45387087570710d26239aa8a5f13d3e829d4",
            "0x00000000000000000000000037b5559c63821820eaac5ff770e5c421d6a2676b",
            "0x000000000000000000000000577e289f663a4e29c231135c09d6a0713ce7aaff"
          ],
          "data": "0x",
          "blockHash": "0xfd69f57c960b16b6eb8aa666c0d78be13cb5ad6a8961cafefc1e14029fefd37e",
          "blockNumber": "0xe9dcdee",
          "transactionHash": "0xc7f4c04b7e4f27a2cbbcecd60678577c1643fef53aca036c0395ea0e0bf61184",
          "transactionIndex": "0x1",
          "logIndex": "0x0",
          "removed": false
        }
      ],
      "logsBloom": "0x00000000000000000000000000000000000000080000000000000000000000000000000000000000000000000000000000000000000000000000000000000000000000010000000000000010000000000000020000000000000000000000000000000000000000000000000000000000000000000000000000000000000000000000000000000000000000001000000000000000000000000000000000000000000000000000000000000000000010000000000000000002000000000000000000008000000000000000000010000000000000000000000000001000000000000000000000000000000000400000000000000000000000000020000000000000",
      "type": "0x2",
      "transactionHash": "0xc7f4c04b7e4f27a2cbbcecd60678577c1643fef53aca036c0395ea0e0bf61184",
      "transactionIndex": "0x1",
      "blockHash": "0xfd69f57c960b16b6eb8aa666c0d78be13cb5ad6a8961cafefc1e14029fefd37e",
      "blockNumber": "0xe9dcdee",
      "gasUsed": "0x207d5",
      "effectiveGasPrice": "0x989680",
      "from": "0x37b5559c63821820eaac5ff770e5c421d6a2676b",
      "to": "0xe45ee4046bd755330d555dfe4ada7839a3eeb926",
      "contractAddress": null,
      "gasUsedForL1": "0x11001",
      "l1BlockNumber": "0x139fe34"
    },
    {
      "status": "0x1",
      "cumulativeGasUsed": "0x1feeb3",
      "logs": [
        {
          "address": "0xe45ee4046bd755330d555dfe4ada7839a3eeb926",
          "topics": [
            "0x6e9738e5aa38fe1517adbb480351ec386ece82947737b18badbcad1e911133ec",
            "0x000000000000000000000000577e289f663a4e29c231135c09d6a0713ce7aaff",
            "0x37b5559c63821820eaac5ff770e5c421d6a26700000000000000000000000000",
            "0x000000000000000000000000577e289f663a4e29c231135c09d6a0713ce7aaff"
          ],
          "data": "0x00000000000000000000000037b5559c63821820eaac5ff770e5c421d6a2676b4b3fd14800000000000000000000000000000000000000000000000000000000",
          "blockHash": "0x04a90dc10783c0a5035b76c871e1bf8172c056d18abf2428cbfbc9fa2f03e01f",
          "blockNumber": "0xe9dcdf0",
          "transactionHash": "0x1f49c8ddfe44e151f68fd3821f9a4f592a78728437a7e658202db61b8d9c6865",
          "transactionIndex": "0x6",
          "logIndex": "0x1d",
          "removed": false
        },
        {
          "address": "0x577e289f663a4e29c231135c09d6a0713ce7aaff",
          "topics": [
            "0xcbc04eca7e9da35cb1393a6135a199ca52e450d5e9251cbd99f7847d33a36750",
            "0x00000000000000000000000037b5559c63821820eaac5ff770e5c421d6a2676b"
          ],
          "data": "0x000000000000000000000000000000000000000000000000000000000007a120",
          "blockHash": "0x04a90dc10783c0a5035b76c871e1bf8172c056d18abf2428cbfbc9fa2f03e01f",
          "blockNumber": "0xe9dcdf0",
          "transactionHash": "0x1f49c8ddfe44e151f68fd3821f9a4f592a78728437a7e658202db61b8d9c6865",
          "transactionIndex": "0x6",
          "logIndex": "0x1e",
          "removed": false
        },
        {
          "address": "0xe486a6141116e47a8b6a85c2bd191225af941b6a",
          "topics": [
            "0xddf252ad1be2c89b69c2b068fc378daa952ba7f163c4a11628f55a4df523b3ef",
            "0x0000000000000000000000000000000000000000000000000000000000000000",
            "0x00000000000000000000000037b5559c63821820eaac5ff770e5c421d6a2676b"
          ],
          "data": "0x000000000000000000000000000000000000000000000000000000000007a120",
          "blockHash": "0x04a90dc10783c0a5035b76c871e1bf8172c056d18abf2428cbfbc9fa2f03e01f",
          "blockNumber": "0xe9dcdf0",
          "transactionHash": "0x1f49c8ddfe44e151f68fd3821f9a4f592a78728437a7e658202db61b8d9c6865",
          "transactionIndex": "0x6",
          "logIndex": "0x1f",
          "removed": false
        },
        {
          "address": "0xaf88d065e77c8cc2239327c5edb3a432268e5831",
          "topics": [
            "0xddf252ad1be2c89b69c2b068fc378daa952ba7f163c4a11628f55a4df523b3ef",
            "0x000000000000000000000000577e289f663a4e29c231135c09d6a0713ce7aaff",
            "0x00000000000000000000000037b5559c63821820eaac5ff770e5c421d6a2676b"
          ],
          "data": "0x000000000000000000000000000000000000000000000000000000000007a120",
          "blockHash": "0x04a90dc10783c0a5035b76c871e1bf8172c056d18abf2428cbfbc9fa2f03e01f",
          "blockNumber": "0xe9dcdf0",
          "transactionHash": "0x1f49c8ddfe44e151f68fd3821f9a4f592a78728437a7e658202db61b8d9c6865",
          "transactionIndex": "0x6",
          "logIndex": "0x20",
          "removed": false
        },
        {
          "address": "0xe45ee4046bd755330d555dfe4ada7839a3eeb926",
          "topics": [
            "0x889a4d4628b31342e420737e2aeb45387087570710d26239aa8a5f13d3e829d4",
            "0x00000000000000000000000037b5559c63821820eaac5ff770e5c421d6a2676b",
            "0x000000000000000000000000577e289f663a4e29c231135c09d6a0713ce7aaff"
          ],
          "data": "0x",
          "blockHash": "0x04a90dc10783c0a5035b76c871e1bf8172c056d18abf2428cbfbc9fa2f03e01f",
          "blockNumber": "0xe9dcdf0",
          "transactionHash": "0x1f49c8ddfe44e151f68fd3821f9a4f592a78728437a7e658202db61b8d9c6865",
          "transactionIndex": "0x6",
          "logIndex": "0x21",
          "removed": false
        },
        {
          "address": "0x577e289f663a4e29c231135c09d6a0713ce7aaff",
          "topics": [
            "0x80b61abbfc5f73cfe5cf93cec97a69ed20643dc6c6f1833b05a1560aa164e24c"
          ],
          "data": "0x0000000000000000000000000000000000000000000000000000000001d908c800000000000000000000000000000000000000000000000000000000000f42c8000000000000000000000000000000000000000000000000000000000000000f0000000000000000000000000000000000000000000000000000000001c91d950000000000000000000000000000000000000000033b67787a42cebd4b0bbebc00000000000000000000000000000000000000000000000002b54e2a7098c7fe0000000000000000000000000000000000000000000000000000000066c60565",
          "blockHash": "0x04a90dc10783c0a5035b76c871e1bf8172c056d18abf2428cbfbc9fa2f03e01f",
          "blockNumber": "0xe9dcdf0",
          "transactionHash": "0x1f49c8ddfe44e151f68fd3821f9a4f592a78728437a7e658202db61b8d9c6865",
          "transactionIndex": "0x6",
          "logIndex": "0x22",
          "removed": false
        },
        {
          "address": "0xe45ee4046bd755330d555dfe4ada7839a3eeb926",
          "topics": [
            "0xaea973cfb51ea8ca328767d72f105b5b9d2360c65f5ac4110a2c4470434471c9",
            "0x000000000000000000000000577e289f663a4e29c231135c09d6a0713ce7aaff"
          ],
          "data": "0x",
          "blockHash": "0x04a90dc10783c0a5035b76c871e1bf8172c056d18abf2428cbfbc9fa2f03e01f",
          "blockNumber": "0xe9dcdf0",
          "transactionHash": "0x1f49c8ddfe44e151f68fd3821f9a4f592a78728437a7e658202db61b8d9c6865",
          "transactionIndex": "0x6",
          "logIndex": "0x23",
          "removed": false
        }
      ],
      "logsBloom": "0x0000000000000000000000000000000084000008000000000000000000022000000000000000000000000000000000000000000100000000000000000000000000000001000000000000001800000000000002000000000000400000000000000000000002000000000000000000080008000000000000800000001000000000000000000000000000000000100000000000000000000000084000000000000000000000000000000000004000001100000000000002002200000800000080000000a002000004000000000010000100000000000000000000001000000020000000200000000000800000400000200000000000000000000020000002020000",
      "type": "0x2",
      "transactionHash": "0x1f49c8ddfe44e151f68fd3821f9a4f592a78728437a7e658202db61b8d9c6865",
      "transactionIndex": "0x6",
      "blockHash": "0x04a90dc10783c0a5035b76c871e1bf8172c056d18abf2428cbfbc9fa2f03e01f",
      "blockNumber": "0xe9dcdf0",
      "gasUsed": "0x4f41c",
      "effectiveGasPrice": "0x989680",
      "from": "0x37b5559c63821820eaac5ff770e5c421d6a2676b",
      "to": "0x577e289f663a4e29c231135c09d6a0713ce7aaff",
      "contractAddress": null,
      "gasUsedForL1": "0x11001",
      "l1BlockNumber": "0x139fe34"
    }
  ],
  "libraries": [],
  "pending": [],
  "returns": {},
  "timestamp": 1724253541,
  "chain": 42161,
  "commit": "9a5d585"
}