{
  "transactions": [
    {
      "hash": "0x9dcecbe2747650706c604ccff4e46684e82fc95eea3a7a7f17f5f68f04949799",
      "transactionType": "CALL",
      "contractName": null,
      "contractAddress": "0x577e289f663a4e29c231135c09d6a0713ce7aaff",
      "function": "borrow(uint256,address)",
      "arguments": [
        "500000",
        "0x37B5559c63821820EaAC5FF770e5C421d6A2676B"
      ],
      "transaction": {
        "from": "0x37b5559c63821820eaac5ff770e5c421d6a2676b",
        "to": "0x577e289f663a4e29c231135c09d6a0713ce7aaff",
        "gas": "0x7f55f",
        "value": "0x0",
        "input": "0x4b3fd148000000000000000000000000000000000000000000000000000000000007a12000000000000000000000000037b5559c63821820eaac5ff770e5c421d6a2676b",
        "nonce": "0x13",
        "chainId": "0xa4b1"
      },
      "additionalContracts": [],
      "isFixedGasLimit": false
    }
  ],
  "receipts": [
    {
      "status": "0x1",
      "cumulativeGasUsed": "0x56406",
      "logs": [
        {
          "address": "0xe45ee4046bd755330d555dfe4ada7839a3eeb926",
          "topics": [
            "0x6e9738e5aa38fe1517adbb480351ec386ece82947737b18badbcad1e911133ec",
            "0x000000000000000000000000577e289f663a4e29c231135c09d6a0713ce7aaff",
            "0x37b5559c63821820eaac5ff770e5c421d6a26700000000000000000000000000",
            "0x000000000000000000000000577e289f663a4e29c231135c09d6a0713ce7aaff"
          ],
          "data": "0x00000000000000000000000037b5559c63821820eaac5ff770e5c421d6a2676b4b3fd14800000000000000000000000000000000000000000000000000000000",
          "blockHash": "0x5983262c95375bd7dc4dd5c30b272d3ee7aa9a6d496db7526a29fcbdb96bccdd",
          "blockNumber": "0xe589652",
          "transactionHash": "0x9dcecbe2747650706c604ccff4e46684e82fc95eea3a7a7f17f5f68f04949799",
          "transactionIndex": "0x1",
          "logIndex": "0x0",
          "removed": false
        },
        {
          "address": "0x577e289f663a4e29c231135c09d6a0713ce7aaff",
          "topics": [
            "0xcbc04eca7e9da35cb1393a6135a199ca52e450d5e9251cbd99f7847d33a36750",
            "0x00000000000000000000000037b5559c63821820eaac5ff770e5c421d6a2676b"
          ],
          "data": "0x000000000000000000000000000000000000000000000000000000000007a120",
          "blockHash": "0x5983262c95375bd7dc4dd5c30b272d3ee7aa9a6d496db7526a29fcbdb96bccdd",
          "blockNumber": "0xe589652",
          "transactionHash": "0x9dcecbe2747650706c604ccff4e46684e82fc95eea3a7a7f17f5f68f04949799",
          "transactionIndex": "0x1",
          "logIndex": "0x1",
          "removed": false
        },
        {
          "address": "0xe486a6141116e47a8b6a85c2bd191225af941b6a",
          "topics": [
            "0xddf252ad1be2c89b69c2b068fc378daa952ba7f163c4a11628f55a4df523b3ef",
            "0x0000000000000000000000000000000000000000000000000000000000000000",
            "0x00000000000000000000000037b5559c63821820eaac5ff770e5c421d6a2676b"
          ],
          "data": "0x000000000000000000000000000000000000000000000000000000000007a120",
          "blockHash": "0x5983262c95375bd7dc4dd5c30b272d3ee7aa9a6d496db7526a29fcbdb96bccdd",
          "blockNumber": "0xe589652",
          "transactionHash": "0x9dcecbe2747650706c604ccff4e46684e82fc95eea3a7a7f17f5f68f04949799",
          "transactionIndex": "0x1",
          "logIndex": "0x2",
          "removed": false
        },
        {
          "address": "0xaf88d065e77c8cc2239327c5edb3a432268e5831",
          "topics": [
            "0xddf252ad1be2c89b69c2b068fc378daa952ba7f163c4a11628f55a4df523b3ef",
            "0x000000000000000000000000577e289f663a4e29c231135c09d6a0713ce7aaff",
            "0x00000000000000000000000037b5559c63821820eaac5ff770e5c421d6a2676b"
          ],
          "data": "0x000000000000000000000000000000000000000000000000000000000007a120",
          "blockHash": "0x5983262c95375bd7dc4dd5c30b272d3ee7aa9a6d496db7526a29fcbdb96bccdd",
          "blockNumber": "0xe589652",
          "transactionHash": "0x9dcecbe2747650706c604ccff4e46684e82fc95eea3a7a7f17f5f68f04949799",
          "transactionIndex": "0x1",
          "logIndex": "0x3",
          "removed": false
        },
        {
          "address": "0xe45ee4046bd755330d555dfe4ada7839a3eeb926",
          "topics": [
            "0x889a4d4628b31342e420737e2aeb45387087570710d26239aa8a5f13d3e829d4",
            "0x00000000000000000000000037b5559c63821820eaac5ff770e5c421d6a2676b",
            "0x000000000000000000000000577e289f663a4e29c231135c09d6a0713ce7aaff"
          ],
          "data": "0x",
          "blockHash": "0x5983262c95375bd7dc4dd5c30b272d3ee7aa9a6d496db7526a29fcbdb96bccdd",
          "blockNumber": "0xe589652",
          "transactionHash": "0x9dcecbe2747650706c604ccff4e46684e82fc95eea3a7a7f17f5f68f04949799",
          "transactionIndex": "0x1",
          "logIndex": "0x4",
          "removed": false
        },
        {
          "address": "0x577e289f663a4e29c231135c09d6a0713ce7aaff",
          "topics": [
            "0x80b61abbfc5f73cfe5cf93cec97a69ed20643dc6c6f1833b05a1560aa164e24c"
          ],
          "data": "0x0000000000000000000000000000000000000000000000000000000001c9c13c00000000000000000000000000000000000000000000000000000000000f4287000000000000000000000000000000000000000000000000000000000000000a0000000000000000000000000000000000000000000000000000000001ba81a90000000000000000000000000000000000000000033b4c3388ebbce3dd3fb69d00000000000000000000000000000000000000000000000002cb62e85b9682720000000000000000000000000000000000000000000000000000000066b49bdb",
          "blockHash": "0x5983262c95375bd7dc4dd5c30b272d3ee7aa9a6d496db7526a29fcbdb96bccdd",
          "blockNumber": "0xe589652",
          "transactionHash": "0x9dcecbe2747650706c604ccff4e46684e82fc95eea3a7a7f17f5f68f04949799",
          "transactionIndex": "0x1",
          "logIndex": "0x5",
          "removed": false
        },
        {
          "address": "0xe45ee4046bd755330d555dfe4ada7839a3eeb926",
          "topics": [
            "0xaea973cfb51ea8ca328767d72f105b5b9d2360c65f5ac4110a2c4470434471c9",
            "0x000000000000000000000000577e289f663a4e29c231135c09d6a0713ce7aaff"
          ],
          "data": "0x",
          "blockHash": "0x5983262c95375bd7dc4dd5c30b272d3ee7aa9a6d496db7526a29fcbdb96bccdd",
          "blockNumber": "0xe589652",
          "transactionHash": "0x9dcecbe2747650706c604ccff4e46684e82fc95eea3a7a7f17f5f68f04949799",
          "transactionIndex": "0x1",
          "logIndex": "0x6",
          "removed": false
        }
      ],
      "logsBloom": "0x0000000000000000000000000000000084000008000000000000000000022000000000000000000000000000000000000000000100000000000000000000000000000001000000000000001800000000000002000000000000400000000000000000000002000000000000000000080008000000000000800000001000000000000000000000000000000000100000000000000000000000084000000000000000000000000000000000004000001100000000000002002200000800000080000000a002000004000000000010000100000000000000000000001000000020000000200000000000800000400000200000000000000000000020000002020000",
      "type": "0x2",
      "transactionHash": "0x9dcecbe2747650706c604ccff4e46684e82fc95eea3a7a7f17f5f68f04949799",
      "transactionIndex": "0x1",
      "blockHash": "0x5983262c95375bd7dc4dd5c30b272d3ee7aa9a6d496db7526a29fcbdb96bccdd",
      "blockNumber": "0xe589652",
      "gasUsed": "0x56406",
      "effectiveGasPrice": "0x989680",
      "from": "0x37b5559c63821820eaac5ff770e5c421d6a2676b",
      "to": "0x577e289f663a4e29c231135c09d6a0713ce7aaff",
      "contractAddress": null,
      "gasUsedForL1": "0x16a88",
      "l1BlockNumber": "0x1388c9b"
    }
  ],
  "libraries": [],
  "pending": [],
  "returns": {},
  "timestamp": 1723112418,
  "chain": 42161,
  "commit": "4b99b23"
}