{
  "transactions": [
    {
      "hash": "0x9c8f0fb0af9bbbb121b073f4c1d9b5b3dbf9bdd9f2a4b50d8d30edcb2640b7e9",
      "transactionType": "CALL",
      "contractName": null,
      "contractAddress": "0xda10009cbd5d07dd0cecc66161fc93d7c9000da1",
      "function": "approve(address,uint256)",
      "arguments": [
        "0xF67F9B1042A7f419c2C0259C983FB1f75f981fD4",
        "115792089237316195423570985008687907853269984665640564039457584007913129639935"
      ],
      "transaction": {
        "from": "0x37b5559c63821820eaac5ff770e5c421d6a2676b",
        "to": "0xda10009cbd5d07dd0cecc66161fc93d7c9000da1",
        "gas": "0x1149c",
        "value": "0x0",
        "input": "0x095ea7b3000000000000000000000000f67f9b1042a7f419c2c0259c983fb1f75f981fd4ffffffffffffffffffffffffffffffffffffffffffffffffffffffffffffffff",
        "nonce": "0x1f",
        "chainId": "0xa4b1"
      },
      "additionalContracts": [],
      "isFixedGasLimit": false
    },
    {
      "hash": "0x7eae83a9add645c2cb3a98ebf06440f38c3706b2f0260510d89baf3660907f65",
      "transactionType": "CALL",
      "contractName": null,
      "contractAddress": "0xf67f9b1042a7f419c2c0259c983fb1f75f981fd4",
      "function": "deposit(uint256,address)",
      "arguments": [
        "1000000000000000000",
        "0x37B5559c63821820EaAC5FF770e5C421d6A2676B"
      ],
      "transaction": {
        "from": "0x37b5559c63821820eaac5ff770e5c421d6a2676b",
        "to": "0xf67f9b1042a7f419c2c0259c983fb1f75f981fd4",
        "gas": "0x357e5",
        "value": "0x0",
        "input": "0x6e553f650000000000000000000000000000000000000000000000000de0b6b3a764000000000000000000000000000037b5559c63821820eaac5ff770e5c421d6a2676b",
        "nonce": "0x20",
        "chainId": "0xa4b1"
      },
      "additionalContracts": [],
      "isFixedGasLimit": false
    },
    {
      "hash": "0x00cde72eeed7483d7858c6275610444347e596f141df0c0c006479c34e0469c9",
      "transactionType": "CALL",
      "contractName": null,
      "contractAddress": "0xe45ee4046bd755330d555dfe4ada7839a3eeb926",
      "function": "enableCollateral(address,address)",
      "arguments": [
        "0x37B5559c63821820EaAC5FF770e5C421d6A2676B",
        "0xF67F9B1042A7f419c2C0259C983FB1f75f981fD4"
      ],
      "transaction": {
        "from": "0x37b5559c63821820eaac5ff770e5c421d6a2676b",
        "to": "0xe45ee4046bd755330d555dfe4ada7839a3eeb926",
        "gas": "0x1e79a",
        "value": "0x0",
        "input": "0xd44fee5a00000000000000000000000037b5559c63821820eaac5ff770e5c421d6a2676b000000000000000000000000f67f9b1042a7f419c2c0259c983fb1f75f981fd4",
        "nonce": "0x21",
        "chainId": "0xa4b1"
      },
      "additionalContracts": [],
      "isFixedGasLimit": false
    },
    {
      "hash": "0xedb8b5bbfff3a53d0acc7be0d8caeed3a0d5ff711b2bac6e9d67d342e8b2c0e6",
      "transactionType": "CALL",
      "contractName": null,
      "contractAddress": "0xe45ee4046bd755330d555dfe4ada7839a3eeb926",
      "function": "enableController(address,address)",
      "arguments": [
        "0x37B5559c63821820EaAC5FF770e5C421d6A2676B",
        "0x577e289F663A4E29c231135c09d6a0713ce7AAff"
      ],
      "transaction": {
        "from": "0x37b5559c63821820eaac5ff770e5c421d6a2676b",
        "to": "0xe45ee4046bd755330d555dfe4ada7839a3eeb926",
        "gas": "0x1e75f",
        "value": "0x0",
        "input": "0xc368516c00000000000000000000000037b5559c63821820eaac5ff770e5c421d6a2676b000000000000000000000000577e289f663a4e29c231135c09d6a0713ce7aaff",
        "nonce": "0x22",
        "chainId": "0xa4b1"
      },
      "additionalContracts": [],
      "isFixedGasLimit": false
    },
    {
      "hash": "0xa89180753ebc50086ea71716a3744e62614f333e7299a1ef56b3db17e0fee9d1",
      "transactionType": "CALL",
      "contractName": null,
      "contractAddress": "0x577e289f663a4e29c231135c09d6a0713ce7aaff",
      "function": "borrow(uint256,address)",
      "arguments": [
        "500000",
        "0x37B5559c63821820EaAC5FF770e5C421d6A2676B"
      ],
      "transaction": {
        "from": "0x37b5559c63821820eaac5ff770e5c421d6a2676b",
        "to": "0x577e289f663a4e29c231135c09d6a0713ce7aaff",
        "gas": "0x54a90",
        "value": "0x0",
        "input": "0x4b3fd148000000000000000000000000000000000000000000000000000000000007a12000000000000000000000000037b5559c63821820eaac5ff770e5c421d6a2676b",
        "nonce": "0x23",
        "chainId": "0xa4b1"
      },
      "additionalContracts": [],
      "isFixedGasLimit": false
    }
  ],
  "receipts": [
    {
      "status": "0x1",
      "cumulativeGasUsed": "0x1113fd",
      "logs": [
        {
          "address": "0xda10009cbd5d07dd0cecc66161fc93d7c9000da1",
          "topics": [
            "0x8c5be1e5ebec7d5bd14f71427d1e84f3dd0314c0f7b2291e5b200ac8c7c3b925",
            "0x00000000000000000000000037b5559c63821820eaac5ff770e5c421d6a2676b",
            "0x000000000000000000000000f67f9b1042a7f419c2c0259c983fb1f75f981fd4"
          ],
          "data": "0xffffffffffffffffffffffffffffffffffffffffffffffffffffffffffffffff",
          "blockHash": "0x32de8138fb0f7deb9a6970ec4370ade43be3812c9fda931eff9dce2880021d9b",
          "blockNumber": "0xe739543",
          "transactionHash": "0x9c8f0fb0af9bbbb121b073f4c1d9b5b3dbf9bdd9f2a4b50d8d30edcb2640b7e9",
          "transactionIndex": "0x4",
          "logIndex": "0x1c",
          "removed": false
        }
      ],
      "logsBloom": "0x00000000000000000008000000000000000000040000000800000000000000000000000000000000000000000000000000000000000000000000000000200000000000010000000001000010000000000000000000000000000000000000000000000000000000000000000000000000000000000000000000000000000000000000000000000000000000000000000000000000000000000000000000000000020000000000000000000000000000000000000000000000000000000000000000008000000000000000000000000000200000000000000000000000000000000010000020000000000000000000000000000000000000000000000000000000",
      "type": "0x2",
      "transactionHash": "0x9c8f0fb0af9bbbb121b073f4c1d9b5b3dbf9bdd9f2a4b50d8d30edcb2640b7e9",
      "transactionIndex": "0x4",
      "blockHash": "0x32de8138fb0f7deb9a6970ec4370ade43be3812c9fda931eff9dce2880021d9b",
      "blockNumber": "0xe739543",
      "gasUsed": "0xb97f",
      "effectiveGasPrice": "0x989680",
      "from": "0x37b5559c63821820eaac5ff770e5c421d6a2676b",
      "to": "0xda10009cbd5d07dd0cecc66161fc93d7c9000da1",
      "contractAddress": null,
      "gasUsedForL1": "0x51fa",
      "l1BlockNumber": "0x1391ceb"
    },
    {
      "status": "0x1",
      "cumulativeGasUsed": "0x24a4c",
      "logs": [
        {
          "address": "0xe45ee4046bd755330d555dfe4ada7839a3eeb926",
          "topics": [
            "0x6e9738e5aa38fe1517adbb480351ec386ece82947737b18badbcad1e911133ec",
            "0x000000000000000000000000f67f9b1042a7f419c2c0259c983fb1f75f981fd4",
            "0x37b5559c63821820eaac5ff770e5c421d6a26700000000000000000000000000",
            "0x000000000000000000000000f67f9b1042a7f419c2c0259c983fb1f75f981fd4"
          ],
          "data": "0x00000000000000000000000037b5559c63821820eaac5ff770e5c421d6a2676b6e553f6500000000000000000000000000000000000000000000000000000000",
          "blockHash": "0xe6356342e5d21d7e0a7a7bd02217014d1d0d911bb3eae96dc61895cf3eb846ef",
          "blockNumber": "0xe739547",
          "transactionHash": "0x7eae83a9add645c2cb3a98ebf06440f38c3706b2f0260510d89baf3660907f65",
          "transactionIndex": "0x1",
          "logIndex": "0x0",
          "removed": false
        },
        {
          "address": "0xda10009cbd5d07dd0cecc66161fc93d7c9000da1",
          "topics": [
            "0xddf252ad1be2c89b69c2b068fc378daa952ba7f163c4a11628f55a4df523b3ef",
            "0x00000000000000000000000037b5559c63821820eaac5ff770e5c421d6a2676b",
            "0x000000000000000000000000f67f9b1042a7f419c2c0259c983fb1f75f981fd4"
          ],
          "data": "0x0000000000000000000000000000000000000000000000000de0b6b3a7640000",
          "blockHash": "0xe6356342e5d21d7e0a7a7bd02217014d1d0d911bb3eae96dc61895cf3eb846ef",
          "blockNumber": "0xe739547",
          "transactionHash": "0x7eae83a9add645c2cb3a98ebf06440f38c3706b2f0260510d89baf3660907f65",
          "transactionIndex": "0x1",
          "logIndex": "0x1",
          "removed": false
        },
        {
          "address": "0xf67f9b1042a7f419c2c0259c983fb1f75f981fd4",
          "topics": [
            "0xddf252ad1be2c89b69c2b068fc378daa952ba7f163c4a11628f55a4df523b3ef",
            "0x0000000000000000000000000000000000000000000000000000000000000000",
            "0x00000000000000000000000037b5559c63821820eaac5ff770e5c421d6a2676b"
          ],
          "data": "0x0000000000000000000000000000000000000000000000000de0b62372757fe8",
          "blockHash": "0xe6356342e5d21d7e0a7a7bd02217014d1d0d911bb3eae96dc61895cf3eb846ef",
          "blockNumber": "0xe739547",
          "transactionHash": "0x7eae83a9add645c2cb3a98ebf06440f38c3706b2f0260510d89baf3660907f65",
          "transactionIndex": "0x1",
          "logIndex": "0x2",
          "removed": false
        },
        {
          "address": "0xf67f9b1042a7f419c2c0259c983fb1f75f981fd4",
          "topics": [
            "0xdcbc1c05240f31ff3ad067ef1ee35ce4997762752e3a095284754544f4c709d7",
            "0x00000000000000000000000037b5559c63821820eaac5ff770e5c421d6a2676b",
            "0x00000000000000000000000037b5559c63821820eaac5ff770e5c421d6a2676b"
          ],
          "data": "0x0000000000000000000000000000000000000000000000000de0b6b3a76400000000000000000000000000000000000000000000000000000de0b62372757fe8",
          "blockHash": "0xe6356342e5d21d7e0a7a7bd02217014d1d0d911bb3eae96dc61895cf3eb846ef",
          "blockNumber": "0xe739547",
          "transactionHash": "0x7eae83a9add645c2cb3a98ebf06440f38c3706b2f0260510d89baf3660907f65",
          "transactionIndex": "0x1",
          "logIndex": "0x3",
          "removed": false
        },
        {
          "address": "0xf67f9b1042a7f419c2c0259c983fb1f75f981fd4",
          "topics": [
            "0x80b61abbfc5f73cfe5cf93cec97a69ed20643dc6c6f1833b05a1560aa164e24c"
          ],
          "data": "0x00000000000000000000000000000000000000000000000159e5aae88e0c1dfd00000000000000000000000000000000000000000000000004db81f8b7b774bf0000000000000000000000000000000000000000000000000000017b8b2e8c2a000000000000000000000000000000000000000000000001550a36fa1f8a4f940000000000000000000000000000000000000000033b363d3dd1fa1dc1abd29f000000000000000000000000000000000000000000000000012d5dcf6c92d34a0000000000000000000000000000000000000000000000000000000066bb6787",
          "blockHash": "0xe6356342e5d21d7e0a7a7bd02217014d1d0d911bb3eae96dc61895cf3eb846ef",
          "blockNumber": "0xe739547",
          "transactionHash": "0x7eae83a9add645c2cb3a98ebf06440f38c3706b2f0260510d89baf3660907f65",
          "transactionIndex": "0x1",
          "logIndex": "0x4",
          "removed": false
        },
        {
          "address": "0xe45ee4046bd755330d555dfe4ada7839a3eeb926",
          "topics": [
            "0xaea973cfb51ea8ca328767d72f105b5b9d2360c65f5ac4110a2c4470434471c9",
            "0x000000000000000000000000f67f9b1042a7f419c2c0259c983fb1f75f981fd4"
          ],
          "data": "0x",
          "blockHash": "0xe6356342e5d21d7e0a7a7bd02217014d1d0d911bb3eae96dc61895cf3eb846ef",
          "blockNumber": "0xe739547",
          "transactionHash": "0x7eae83a9add645c2cb3a98ebf06440f38c3706b2f0260510d89baf3660907f65",
          "transactionIndex": "0x1",
          "logIndex": "0x5",
          "removed": false
        }
      ],
      "logsBloom": "0x00000000000000000008000000000000000000040000000800000000000020000000000000000000000000000000000000000000000000000000000000000000000000410000000001000018000000400000000000000000004000000000000000000000020000000000000000000800080000000004008000000010000000000000000000000000000000001000000000000008000000000000000000000000000000000000000000000000000001000000000000020020000008000000800000008002000004000000000010000000200000000008000000001000000020000000000020000004800000000000000000000000000000000000000000020000",
      "type": "0x2",
      "transactionHash": "0x7eae83a9add645c2cb3a98ebf06440f38c3706b2f0260510d89baf3660907f65",
      "transactionIndex": "0x1",
      "blockHash": "0xe6356342e5d21d7e0a7a7bd02217014d1d0d911bb3eae96dc61895cf3eb846ef",
      "blockNumber": "0xe739547",
      "gasUsed": "0x24a4c",
      "effectiveGasPrice": "0x989680",
      "from": "0x37b5559c63821820eaac5ff770e5c421d6a2676b",
      "to": "0xf67f9b1042a7f419c2c0259c983fb1f75f981fd4",
      "contractAddress": null,
      "gasUsedForL1": "0x51fa",
      "l1BlockNumber": "0x1391ceb"
    },
    {
      "status": "0x1",
      "cumulativeGasUsed": "0x51292",
      "logs": [
        {
          "address": "0xe45ee4046bd755330d555dfe4ada7839a3eeb926",
          "topics": [
            "0x889a4d4628b31342e420737e2aeb45387087570710d26239aa8a5f13d3e829d4",
            "0x00000000000000000000000037b5559c63821820eaac5ff770e5c421d6a2676b",
            "0x000000000000000000000000577e289f663a4e29c231135c09d6a0713ce7aaff"
          ],
          "data": "0x",
          "blockHash": "0x98726ead22b13770bf133a4a53d83c81bfed9d7b3dd2b397f590b40688a91b44",
          "blockNumber": "0xe73954a",
          "transactionHash": "0x00cde72eeed7483d7858c6275610444347e596f141df0c0c006479c34e0469c9",
          "transactionIndex": "0x4",
          "logIndex": "0x3",
          "removed": false
        }
      ],
      "logsBloom": "0x00000000000000000000000000000000000000080000000000000000000000000000000000000000000000000000000000000000000000000000000000000000000000010000000000000010000000000000020000000000000000000000000000000000000000000000000000000000000000000000000000000000000000000000000000000000000000001000000000000000000000000000000000000000000000000000000000000000000010000000000000000002000000000000000000008000000000000000000010000000000000000000000000001000000000000000000000000000000000400000000000000000000000000020000000000000",
      "type": "0x2",
      "transactionHash": "0x00cde72eeed7483d7858c6275610444347e596f141df0c0c006479c34e0469c9",
      "transactionIndex": "0x4",
      "blockHash": "0x98726ead22b13770bf133a4a53d83c81bfed9d7b3dd2b397f590b40688a91b44",
      "blockNumber": "0xe73954a",
      "gasUsed": "0x14ab7",
      "effectiveGasPrice": "0x989680",
      "from": "0x37b5559c63821820eaac5ff770e5c421d6a2676b",
      "to": "0xe45ee4046bd755330d555dfe4ada7839a3eeb926",
      "contractAddress": null,
      "gasUsedForL1": "0x51fa",
      "l1BlockNumber": "0x1391ceb"
    },
    {
      "status": "0x1",
      "cumulativeGasUsed": "0x58f11",
      "logs": [
        {
          "address": "0xe45ee4046bd755330d555dfe4ada7839a3eeb926",
          "topics": [
            "0x889a4d4628b31342e420737e2aeb45387087570710d26239aa8a5f13d3e829d4",
            "0x00000000000000000000000037b5559c63821820eaac5ff770e5c421d6a2676b",
            "0x000000000000000000000000577e289f663a4e29c231135c09d6a0713ce7aaff"
          ],
          "data": "0x",
          "blockHash": "0x76f813d05a903c8bd9c9c86310c5a289608426a1f553bdcc908ee853946dabb5",
          "blockNumber": "0xe73956a",
          "transactionHash": "0xedb8b5bbfff3a53d0acc7be0d8caeed3a0d5ff711b2bac6e9d67d342e8b2c0e6",
          "transactionIndex": "0x2",
          "logIndex": "0x0",
          "removed": false
        }
      ],
      "logsBloom": "0x00000000000000000000000000000000000000080000000000000000000000000000000000000000000000000000000000000000000000000000000000000000000000010000000000000010000000000000020000000000000000000000000000000000000000000000000000000000000000000000000000000000000000000000000000000000000000001000000000000000000000000000000000000000000000000000000000000000000010000000000000000002000000000000000000008000000000000000000010000000000000000000000000001000000000000000000000000000000000400000000000000000000000000020000000000000",
      "type": "0x2",
      "transactionHash": "0xedb8b5bbfff3a53d0acc7be0d8caeed3a0d5ff711b2bac6e9d67d342e8b2c0e6",
      "transactionIndex": "0x2",
      "blockHash": "0x76f813d05a903c8bd9c9c86310c5a289608426a1f553bdcc908ee853946dabb5",
      "blockNumber": "0xe73956a",
      "gasUsed": "0x14aeb",
      "effectiveGasPrice": "0x989680",
      "from": "0x37b5559c63821820eaac5ff770e5c421d6a2676b",
      "to": "0xe45ee4046bd755330d555dfe4ada7839a3eeb926",
      "contractAddress": null,
      "gasUsedForL1": "0x51fa",
      "l1BlockNumber": "0x1391cec"
    },
    {
      "status": "0x1",
      "cumulativeGasUsed": "0xba6fe",
      "logs": [
        {
          "address": "0xe45ee4046bd755330d555dfe4ada7839a3eeb926",
          "topics": [
            "0x6e9738e5aa38fe1517adbb480351ec386ece82947737b18badbcad1e911133ec",
            "0x000000000000000000000000577e289f663a4e29c231135c09d6a0713ce7aaff",
            "0x37b5559c63821820eaac5ff770e5c421d6a26700000000000000000000000000",
            "0x000000000000000000000000577e289f663a4e29c231135c09d6a0713ce7aaff"
          ],
          "data": "0x00000000000000000000000037b5559c63821820eaac5ff770e5c421d6a2676b4b3fd14800000000000000000000000000000000000000000000000000000000",
          "blockHash": "0xcd3ba40eac03ea946700f0182923cee23193d8f802b162d520ba75736003eb13",
          "blockNumber": "0xe73956d",
          "transactionHash": "0xa89180753ebc50086ea71716a3744e62614f333e7299a1ef56b3db17e0fee9d1",
          "transactionIndex": "0x5",
          "logIndex": "0x6",
          "removed": false
        },
        {
          "address": "0x577e289f663a4e29c231135c09d6a0713ce7aaff",
          "topics": [
            "0xcbc04eca7e9da35cb1393a6135a199ca52e450d5e9251cbd99f7847d33a36750",
            "0x00000000000000000000000037b5559c63821820eaac5ff770e5c421d6a2676b"
          ],
          "data": "0x000000000000000000000000000000000000000000000000000000000007a120",
          "blockHash": "0xcd3ba40eac03ea946700f0182923cee23193d8f802b162d520ba75736003eb13",
          "blockNumber": "0xe73956d",
          "transactionHash": "0xa89180753ebc50086ea71716a3744e62614f333e7299a1ef56b3db17e0fee9d1",
          "transactionIndex": "0x5",
          "logIndex": "0x7",
          "removed": false
        },
        {
          "address": "0xe486a6141116e47a8b6a85c2bd191225af941b6a",
          "topics": [
            "0xddf252ad1be2c89b69c2b068fc378daa952ba7f163c4a11628f55a4df523b3ef",
            "0x0000000000000000000000000000000000000000000000000000000000000000",
            "0x00000000000000000000000037b5559c63821820eaac5ff770e5c421d6a2676b"
          ],
          "data": "0x000000000000000000000000000000000000000000000000000000000007a120",
          "blockHash": "0xcd3ba40eac03ea946700f0182923cee23193d8f802b162d520ba75736003eb13",
          "blockNumber": "0xe73956d",
          "transactionHash": "0xa89180753ebc50086ea71716a3744e62614f333e7299a1ef56b3db17e0fee9d1",
          "transactionIndex": "0x5",
          "logIndex": "0x8",
          "removed": false
        },
        {
          "address": "0xaf88d065e77c8cc2239327c5edb3a432268e5831",
          "topics": [
            "0xddf252ad1be2c89b69c2b068fc378daa952ba7f163c4a11628f55a4df523b3ef",
            "0x000000000000000000000000577e289f663a4e29c231135c09d6a0713ce7aaff",
            "0x00000000000000000000000037b5559c63821820eaac5ff770e5c421d6a2676b"
          ],
          "data": "0x000000000000000000000000000000000000000000000000000000000007a120",
          "blockHash": "0xcd3ba40eac03ea946700f0182923cee23193d8f802b162d520ba75736003eb13",
          "blockNumber": "0xe73956d",
          "transactionHash": "0xa89180753ebc50086ea71716a3744e62614f333e7299a1ef56b3db17e0fee9d1",
          "transactionIndex": "0x5",
          "logIndex": "0x9",
          "removed": false
        },
        {
          "address": "0xe45ee4046bd755330d555dfe4ada7839a3eeb926",
          "topics": [
            "0x889a4d4628b31342e420737e2aeb45387087570710d26239aa8a5f13d3e829d4",
            "0x00000000000000000000000037b5559c63821820eaac5ff770e5c421d6a2676b",
            "0x000000000000000000000000577e289f663a4e29c231135c09d6a0713ce7aaff"
          ],
          "data": "0x",
          "blockHash": "0xcd3ba40eac03ea946700f0182923cee23193d8f802b162d520ba75736003eb13",
          "blockNumber": "0xe73956d",
          "transactionHash": "0xa89180753ebc50086ea71716a3744e62614f333e7299a1ef56b3db17e0fee9d1",
          "transactionIndex": "0x5",
          "logIndex": "0xa",
          "removed": false
        },
        {
          "address": "0x577e289f663a4e29c231135c09d6a0713ce7aaff",
          "topics": [
            "0x80b61abbfc5f73cfe5cf93cec97a69ed20643dc6c6f1833b05a1560aa164e24c"
          ],
          "data": "0x0000000000000000000000000000000000000000000000000000000001d908c500000000000000000000000000000000000000000000000000000000000f42a2000000000000000000000000000000000000000000000000000000000000000c0000000000000000000000000000000000000000000000000000000001c91d8a0000000000000000000000000000000000000000033b575b46319c8634420a6300000000000000000000000000000000000000000000000002b547b42119a0260000000000000000000000000000000000000000000000000000000066bb6791",
          "blockHash": "0xcd3ba40eac03ea946700f0182923cee23193d8f802b162d520ba75736003eb13",
          "blockNumber": "0xe73956d",
          "transactionHash": "0xa89180753ebc50086ea71716a3744e62614f333e7299a1ef56b3db17e0fee9d1",
          "transactionIndex": "0x5",
          "logIndex": "0xb",
          "removed": false
        },
        {
          "address": "0xe45ee4046bd755330d555dfe4ada7839a3eeb926",
          "topics": [
            "0xaea973cfb51ea8ca328767d72f105b5b9d2360c65f5ac4110a2c4470434471c9",
            "0x000000000000000000000000577e289f663a4e29c231135c09d6a0713ce7aaff"
          ],
          "data": "0x",
          "blockHash": "0xcd3ba40eac03ea946700f0182923cee23193d8f802b162d520ba75736003eb13",
          "blockNumber": "0xe73956d",
          "transactionHash": "0xa89180753ebc50086ea71716a3744e62614f333e7299a1ef56b3db17e0fee9d1",
          "transactionIndex": "0x5",
          "logIndex": "0xc",
          "removed": false
        }
      ],
      "logsBloom": "0x0000000000000000000000000000000084000008000000000000000000022000000000000000000000000000000000000000000100000000000000000000000000000001000000000000001800000000000002000000000000400000000000000000000002000000000000000000080008000000000000800000001000000000000000000000000000000000100000000000000000000000084000000000000000000000000000000000004000001100000000000002002200000800000080000000a002000004000000000010000100000000000000000000001000000020000000200000000000800000400000200000000000000000000020000002020000",
      "type": "0x2",
      "transactionHash": "0xa89180753ebc50086ea71716a3744e62614f333e7299a1ef56b3db17e0fee9d1",
      "transactionIndex": "0x5",
      "blockHash": "0xcd3ba40eac03ea946700f0182923cee23193d8f802b162d520ba75736003eb13",
      "blockNumber": "0xe73956d",
      "gasUsed": "0x444c3",
      "effectiveGasPrice": "0x989680",
      "from": "0x37b5559c63821820eaac5ff770e5c421d6a2676b",
      "to": "0x577e289f663a4e29c231135c09d6a0713ce7aaff",
      "contractAddress": null,
      "gasUsedForL1": "0x51fa",
      "l1BlockNumber": "0x1391cec"
    }
  ],
  "libraries": [],
  "pending": [],
  "returns": {},
  "timestamp": 1723557777,
  "chain": 42161,
  "commit": "1524784"
}