{
  "transactions": [
    {
      "hash": "0xefbcce217f6f42fbc5d7bb40df979255a2b4f35df701bd3608566b67caec1cb0",
      "transactionType": "CALL",
      "contractName": null,
      "contractAddress": "0xa0b86991c6218b36c1d19d4a2e9eb0ce3606eb48",
      "function": "transfer(address,uint256)",
      "arguments": [
        "0x3C44CdDdB6a900fa2b585dd299e03d12FA4293BC",
        "10000000000"
      ],
      "transaction": {
        "from": "0xf39fd6e51aad88f6f4ce6ab8827279cfffb92266",
        "to": "0xa0b86991c6218b36c1d19d4a2e9eb0ce3606eb48",
        "gas": "0xf397",
        "value": "0x0",
        "input": "0xa9059cbb0000000000000000000000003c44cdddb6a900fa2b585dd299e03d12fa4293bc00000000000000000000000000000000000000000000000000000002540be400",
        "nonce": "0x480",
        "chainId": "0xa179"
      },
      "additionalContracts": [],
      "isFixedGasLimit": false
    },
    {
      "hash": "0x7ec35455add24864402f9c8aa64c9e1338d67749372bed3ae6d13ebd8777442c",
      "transactionType": "CALL",
      "contractName": null,
      "contractAddress": "0x6b175474e89094c44da98b954eedeac495271d0f",
      "function": "transfer(address,uint256)",
      "arguments": [
        "0x3C44CdDdB6a900fa2b585dd299e03d12FA4293BC",
        "10000000000"
      ],
      "transaction": {
        "from": "0xf39fd6e51aad88f6f4ce6ab8827279cfffb92266",
        "to": "0x6b175474e89094c44da98b954eedeac495271d0f",
        "gas": "0xbb0e",
        "value": "0x0",
        "input": "0xa9059cbb0000000000000000000000003c44cdddb6a900fa2b585dd299e03d12fa4293bc00000000000000000000000000000000000000000000000000000002540be400",
        "nonce": "0x481",
        "chainId": "0xa179"
      },
      "additionalContracts": [],
      "isFixedGasLimit": false
    }
  ],
  "receipts": [
    {
      "status": "0x1",
      "cumulativeGasUsed": "0xb05c",
      "logs": [
        {
          "address": "0xa0b86991c6218b36c1d19d4a2e9eb0ce3606eb48",
          "topics": [
            "0xddf252ad1be2c89b69c2b068fc378daa952ba7f163c4a11628f55a4df523b3ef",
            "0x000000000000000000000000f39fd6e51aad88f6f4ce6ab8827279cfffb92266",
            "0x0000000000000000000000003c44cdddb6a900fa2b585dd299e03d12fa4293bc"
          ],
          "data": "0x00000000000000000000000000000000000000000000000000000002540be400",
          "blockHash": "0x6fc53ad983f74fac6069457d1d2b228ecb33abe88d55fe17e99ff181e7aa19b8",
          "blockNumber": "0x136607a",
          "blockTimestamp": "0x669a5e15",
          "transactionHash": "0xefbcce217f6f42fbc5d7bb40df979255a2b4f35df701bd3608566b67caec1cb0",
          "transactionIndex": "0x0",
          "logIndex": "0x0",
          "removed": false
        }
      ],
      "logsBloom": "0x00000000000000000000000000000000000000000000000000000000000000000000000000000000000000000000000000000000000000000000000000100000000000000000000008000008000000000000000000000000000000000000000000000000000000000000000100000000000800000000000000000010000000000000000000000000000000000000000000000000010000000000000000000000000000000000200000000000000000000000000000000000000000000000000000000002000000200000000000000000000000002000000000000000000000000000000000000000000000000000000000000000000000000000000000000000",
      "type": "0x2",
      "transactionHash": "0xefbcce217f6f42fbc5d7bb40df979255a2b4f35df701bd3608566b67caec1cb0",
      "transactionIndex": "0x0",
      "blockHash": "0x6fc53ad983f74fac6069457d1d2b228ecb33abe88d55fe17e99ff181e7aa19b8",
      "blockNumber": "0x136607a",
      "gasUsed": "0xb05c",
      "effectiveGasPrice": "0x3b9aca01",
      "blobGasPrice": "0x1",
      "from": "0xf39fd6e51aad88f6f4ce6ab8827279cfffb92266",
      "to": "0xa0b86991c6218b36c1d19d4a2e9eb0ce3606eb48",
      "contractAddress": null,
      "root": "0x0000000000000000000000000000000000000000000000000000000000000000"
    },
    {
      "status": "0x1",
      "cumulativeGasUsed": "0x876e",
      "logs": [
        {
          "address": "0x6b175474e89094c44da98b954eedeac495271d0f",
          "topics": [
            "0xddf252ad1be2c89b69c2b068fc378daa952ba7f163c4a11628f55a4df523b3ef",
            "0x000000000000000000000000f39fd6e51aad88f6f4ce6ab8827279cfffb92266",
            "0x0000000000000000000000003c44cdddb6a900fa2b585dd299e03d12fa4293bc"
          ],
          "data": "0x00000000000000000000000000000000000000000000000000000002540be400",
          "blockHash": "0xac12ffc4fd3d23d3fa817035ade1f773ae49c6ed4ef4923b6159bb07b1c77dc3",
          "blockNumber": "0x136607b",
          "blockTimestamp": "0x669a5e16",
          "transactionHash": "0x7ec35455add24864402f9c8aa64c9e1338d67749372bed3ae6d13ebd8777442c",
          "transactionIndex": "0x0",
          "logIndex": "0x0",
          "removed": false
        }
      ],
      "logsBloom": "0x00000000000000000000000000000000000000000000000000000000000000000000000000000000000000000000000000000000000000000000000000100000000000000000000000000008000000000000000000000000000000000000000010000000000000000000000100000000000800000000000000000010000000000000000000000000000000000000000000000000000000000000000000000000000000000000200000000000000000000000000000000000000000000000000000000002000000200000000000000000000002002000000000000000000000000000000000000000000000000000000000000000000000000000000000000000",
      "type": "0x2",
      "transactionHash": "0x7ec35455add24864402f9c8aa64c9e1338d67749372bed3ae6d13ebd8777442c",
      "transactionIndex": "0x0",
      "blockHash": "0xac12ffc4fd3d23d3fa817035ade1f773ae49c6ed4ef4923b6159bb07b1c77dc3",
      "blockNumber": "0x136607b",
      "gasUsed": "0x876e",
      "effectiveGasPrice": "0x3b9aca01",
      "blobGasPrice": "0x1",
      "from": "0xf39fd6e51aad88f6f4ce6ab8827279cfffb92266",
      "to": "0x6b175474e89094c44da98b954eedeac495271d0f",
      "contractAddress": null,
      "root": "0x0000000000000000000000000000000000000000000000000000000000000000"
    }
  ],
  "libraries": [],
  "pending": [],
  "returns": {},
  "timestamp": 1721392672,
  "chain": 41337,
  "commit": "53d1f6d"
}