{
  "transactions": [
    {
      "hash": "0x79381237403ad71a4f4ee66d3ce2e323972739e08e71d9f7ce4b8a0ad1b4b703",
      "transactionType": "CALL",
      "contractName": null,
      "contractAddress": "0x6b175474e89094c44da98b954eedeac495271d0f",
      "function": "approve(address,uint256)",
      "arguments": [
        "0xf6cb30F1b333B511be23f6Fc0b733ed26030d6f7",
        "1000000000000000000"
      ],
      "transaction": {
        "from": "0xf39fd6e51aad88f6f4ce6ab8827279cfffb92266",
        "to": "0x6b175474e89094c44da98b954eedeac495271d0f",
        "gas": "0x107a0",
        "value": "0x0",
        "input": "0x095ea7b3000000000000000000000000f6cb30f1b333b511be23f6fc0b733ed26030d6f70000000000000000000000000000000000000000000000000de0b6b3a7640000",
        "nonce": "0x438",
        "chainId": "0xa179"
      },
      "additionalContracts": [],
      "isFixedGasLimit": false
    }
  ],
  "receipts": [
    {
      "status": "0x1",
      "cumulativeGasUsed": "0xb442",
      "logs": [
        {
          "address": "0x6b175474e89094c44da98b954eedeac495271d0f",
          "topics": [
            "0x8c5be1e5ebec7d5bd14f71427d1e84f3dd0314c0f7b2291e5b200ac8c7c3b925",
            "0x000000000000000000000000f39fd6e51aad88f6f4ce6ab8827279cfffb92266",
            "0x000000000000000000000000f6cb30f1b333b511be23f6fc0b733ed26030d6f7"
          ],
          "data": "0x0000000000000000000000000000000000000000000000000de0b6b3a7640000",
          "blockHash": "0x13f8c3cb5b58c3413b3109c33d5d143863bee5d5940722a743ec4e76e020dbd3",
          "blockNumber": "0x134a323",
          "blockTimestamp": "0x668568b1",
          "transactionHash": "0x79381237403ad71a4f4ee66d3ce2e323972739e08e71d9f7ce4b8a0ad1b4b703",
          "transactionIndex": "0x0",
          "logIndex": "0x0",
          "removed": false
        }
      ],
      "logsBloom": "0x00000000000000000000000000000000000000000000000000000000000000000000000000000000000000000000000000000000000000000000000000200000000000000000000000000008000000000000000000000000000000000000000010000000000000000000000100000000000000000000000000000000000000000000000000000000000020000000000000000000000000000000000000000000020000000000000040000000000000000000000000000000000000000000000000000000000000200000000000000000000002002000000000000000000000000010000000000000000000000000000000000000000000000000000000000000",
      "type": "0x2",
      "transactionHash": "0x79381237403ad71a4f4ee66d3ce2e323972739e08e71d9f7ce4b8a0ad1b4b703",
      "transactionIndex": "0x0",
      "blockHash": "0x13f8c3cb5b58c3413b3109c33d5d143863bee5d5940722a743ec4e76e020dbd3",
      "blockNumber": "0x134a323",
      "gasUsed": "0xb442",
      "effectiveGasPrice": "0x3b9aca01",
      "blobGasPrice": "0x1",
      "from": "0xf39fd6e51aad88f6f4ce6ab8827279cfffb92266",
      "to": "0x6b175474e89094c44da98b954eedeac495271d0f",
      "contractAddress": null,
      "root": "0x0000000000000000000000000000000000000000000000000000000000000000"
    }
  ],
  "libraries": [],
  "pending": [],
  "returns": {},
  "timestamp": 1720019124,
  "chain": 41337,
  "commit": "6a87790"
}