{
  "transactions": [
    {
      "hash": "0x4efc17e7d6bedde15d5e3d0d7d846e33c034162eb0ebb3eaa493758d1d2bd910",
      "transactionType": "CALL",
      "contractName": null,
      "contractAddress": "0xa0b86991c6218b36c1d19d4a2e9eb0ce3606eb48",
      "function": "transfer(address,uint256)",
      "arguments": [
        "0x3C44CdDdB6a900fa2b585dd299e03d12FA4293BC",
        "10000000000"
      ],
      "transaction": {
        "from": "0xf39fd6e51aad88f6f4ce6ab8827279cfffb92266",
        "to": "0xa0b86991c6218b36c1d19d4a2e9eb0ce3606eb48",
        "gas": "0xf397",
        "value": "0x0",
        "input": "0xa9059cbb0000000000000000000000003c44cdddb6a900fa2b585dd299e03d12fa4293bc00000000000000000000000000000000000000000000000000000002540be400",
        "nonce": "0x47a",
        "chainId": "0xa179"
      },
      "additionalContracts": [],
      "isFixedGasLimit": false
    },
    {
      "hash": "0xa9db6e1c8eda95ac3a30a08afbf15170c349fffa8838f485236f9b0bed95b6f4",
      "transactionType": "CALL",
      "contractName": null,
      "contractAddress": "0x6b175474e89094c44da98b954eedeac495271d0f",
      "function": "transfer(address,uint256)",
      "arguments": [
        "0x3C44CdDdB6a900fa2b585dd299e03d12FA4293BC",
        "10000000000"
      ],
      "transaction": {
        "from": "0xf39fd6e51aad88f6f4ce6ab8827279cfffb92266",
        "to": "0x6b175474e89094c44da98b954eedeac495271d0f",
        "gas": "0xbb0e",
        "value": "0x0",
        "input": "0xa9059cbb0000000000000000000000003c44cdddb6a900fa2b585dd299e03d12fa4293bc00000000000000000000000000000000000000000000000000000002540be400",
        "nonce": "0x47b",
        "chainId": "0xa179"
      },
      "additionalContracts": [],
      "isFixedGasLimit": false
    }
  ],
  "receipts": [
    {
      "status": "0x1",
      "cumulativeGasUsed": "0xb05c",
      "logs": [
        {
          "address": "0xa0b86991c6218b36c1d19d4a2e9eb0ce3606eb48",
          "topics": [
            "0xddf252ad1be2c89b69c2b068fc378daa952ba7f163c4a11628f55a4df523b3ef",
            "0x000000000000000000000000f39fd6e51aad88f6f4ce6ab8827279cfffb92266",
            "0x0000000000000000000000003c44cdddb6a900fa2b585dd299e03d12fa4293bc"
          ],
          "data": "0x00000000000000000000000000000000000000000000000000000002540be400",
          "blockHash": "0x2239cd9730a4eaee682e91f91c1e24f4acf7e482503b1cf7d2d88485d00131d3",
          "blockNumber": "0x1366074",
          "blockTimestamp": "0x669a5d6c",
          "transactionHash": "0x4efc17e7d6bedde15d5e3d0d7d846e33c034162eb0ebb3eaa493758d1d2bd910",
          "transactionIndex": "0x0",
          "logIndex": "0x0",
          "removed": false
        }
      ],
      "logsBloom": "0x00000000000000000000000000000000000000000000000000000000000000000000000000000000000000000000000000000000000000000000000000100000000000000000000008000008000000000000000000000000000000000000000000000000000000000000000100000000000800000000000000000010000000000000000000000000000000000000000000000000010000000000000000000000000000000000200000000000000000000000000000000000000000000000000000000002000000200000000000000000000000002000000000000000000000000000000000000000000000000000000000000000000000000000000000000000",
      "type": "0x2",
      "transactionHash": "0x4efc17e7d6bedde15d5e3d0d7d846e33c034162eb0ebb3eaa493758d1d2bd910",
      "transactionIndex": "0x0",
      "blockHash": "0x2239cd9730a4eaee682e91f91c1e24f4acf7e482503b1cf7d2d88485d00131d3",
      "blockNumber": "0x1366074",
      "gasUsed": "0xb05c",
      "effectiveGasPrice": "0x3b9aca01",
      "blobGasPrice": "0x1",
      "from": "0xf39fd6e51aad88f6f4ce6ab8827279cfffb92266",
      "to": "0xa0b86991c6218b36c1d19d4a2e9eb0ce3606eb48",
      "contractAddress": null,
      "root": "0x0000000000000000000000000000000000000000000000000000000000000000"
    },
    {
      "status": "0x1",
      "cumulativeGasUsed": "0x876e",
      "logs": [
        {
          "address": "0x6b175474e89094c44da98b954eedeac495271d0f",
          "topics": [
            "0xddf252ad1be2c89b69c2b068fc378daa952ba7f163c4a11628f55a4df523b3ef",
            "0x000000000000000000000000f39fd6e51aad88f6f4ce6ab8827279cfffb92266",
            "0x0000000000000000000000003c44cdddb6a900fa2b585dd299e03d12fa4293bc"
          ],
          "data": "0x00000000000000000000000000000000000000000000000000000002540be400",
          "blockHash": "0xef34a17fd9f6bbaeac450dd15859bafd9ff68d18078062b2765331f09b0bed12",
          "blockNumber": "0x1366075",
          "blockTimestamp": "0x669a5d6d",
          "transactionHash": "0xa9db6e1c8eda95ac3a30a08afbf15170c349fffa8838f485236f9b0bed95b6f4",
          "transactionIndex": "0x0",
          "logIndex": "0x0",
          "removed": false
        }
      ],
      "logsBloom": "0x00000000000000000000000000000000000000000000000000000000000000000000000000000000000000000000000000000000000000000000000000100000000000000000000000000008000000000000000000000000000000000000000010000000000000000000000100000000000800000000000000000010000000000000000000000000000000000000000000000000000000000000000000000000000000000000200000000000000000000000000000000000000000000000000000000002000000200000000000000000000002002000000000000000000000000000000000000000000000000000000000000000000000000000000000000000",
      "type": "0x2",
      "transactionHash": "0xa9db6e1c8eda95ac3a30a08afbf15170c349fffa8838f485236f9b0bed95b6f4",
      "transactionIndex": "0x0",
      "blockHash": "0xef34a17fd9f6bbaeac450dd15859bafd9ff68d18078062b2765331f09b0bed12",
      "blockNumber": "0x1366075",
      "gasUsed": "0x876e",
      "effectiveGasPrice": "0x3b9aca01",
      "blobGasPrice": "0x1",
      "from": "0xf39fd6e51aad88f6f4ce6ab8827279cfffb92266",
      "to": "0x6b175474e89094c44da98b954eedeac495271d0f",
      "contractAddress": null,
      "root": "0x0000000000000000000000000000000000000000000000000000000000000000"
    }
  ],
  "libraries": [],
  "pending": [],
  "returns": {},
  "timestamp": 1721392503,
  "chain": 41337,
  "commit": "53d1f6d"
}