{
  "transactions": [
    {
      "hash": "0x6590ed1048c0713056db062adce3d1533eecb8e08064ad0e1d1c08ba84835a52",
      "transactionType": "CALL",
      "contractName": null,
      "contractAddress": "0x6b175474e89094c44da98b954eedeac495271d0f",
      "function": "approve(address,uint256)",
      "arguments": [
        "0xf6cb30F1b333B511be23f6Fc0b733ed26030d6f7",
        "115792089237316195423570985008687907853269984665640564039457584007913129639935"
      ],
      "transaction": {
        "from": "0xf39fd6e51aad88f6f4ce6ab8827279cfffb92266",
        "to": "0x6b175474e89094c44da98b954eedeac495271d0f",
        "gas": "0x8f4a",
        "value": "0x0",
        "input": "0x095ea7b3000000000000000000000000f6cb30f1b333b511be23f6fc0b733ed26030d6f7ffffffffffffffffffffffffffffffffffffffffffffffffffffffffffffffff",
        "nonce": "0x43a",
        "chainId": "0xa179"
      },
      "additionalContracts": [],
      "isFixedGasLimit": false
    }
  ],
  "receipts": [
    {
      "status": "0x1",
      "cumulativeGasUsed": "0x67be",
      "logs": [
        {
          "address": "0x6b175474e89094c44da98b954eedeac495271d0f",
          "topics": [
            "0x8c5be1e5ebec7d5bd14f71427d1e84f3dd0314c0f7b2291e5b200ac8c7c3b925",
            "0x000000000000000000000000f39fd6e51aad88f6f4ce6ab8827279cfffb92266",
            "0x000000000000000000000000f6cb30f1b333b511be23f6fc0b733ed26030d6f7"
          ],
          "data": "0xffffffffffffffffffffffffffffffffffffffffffffffffffffffffffffffff",
          "blockHash": "0xda5f0c1d82485f68f46b5e4de55f66331bbdb669bdcc92f1fb1f6bc9ed10d717",
          "blockNumber": "0x134a325",
          "blockTimestamp": "0x66856b19",
          "transactionHash": "0x6590ed1048c0713056db062adce3d1533eecb8e08064ad0e1d1c08ba84835a52",
          "transactionIndex": "0x0",
          "logIndex": "0x0",
          "removed": false
        }
      ],
      "logsBloom": "0x00000000000000000000000000000000000000000000000000000000000000000000000000000000000000000000000000000000000000000000000000200000000000000000000000000008000000000000000000000000000000000000000010000000000000000000000100000000000000000000000000000000000000000000000000000000000020000000000000000000000000000000000000000000020000000000000040000000000000000000000000000000000000000000000000000000000000200000000000000000000002002000000000000000000000000010000000000000000000000000000000000000000000000000000000000000",
      "type": "0x2",
      "transactionHash": "0x6590ed1048c0713056db062adce3d1533eecb8e08064ad0e1d1c08ba84835a52",
      "transactionIndex": "0x0",
      "blockHash": "0xda5f0c1d82485f68f46b5e4de55f66331bbdb669bdcc92f1fb1f6bc9ed10d717",
      "blockNumber": "0x134a325",
      "gasUsed": "0x67be",
      "effectiveGasPrice": "0x3b9aca01",
      "blobGasPrice": "0x1",
      "from": "0xf39fd6e51aad88f6f4ce6ab8827279cfffb92266",
      "to": "0x6b175474e89094c44da98b954eedeac495271d0f",
      "contractAddress": null,
      "root": "0x0000000000000000000000000000000000000000000000000000000000000000"
    }
  ],
  "libraries": [],
  "pending": [],
  "returns": {},
  "timestamp": 1720019740,
  "chain": 41337,
  "commit": "6a87790"
}