{
  "transactions": [
    {
      "hash": "0x26f40f5bb261821ed2d9bc9a91b954b109df07ab76c22bf3b6c4a094153b0e7d",
      "transactionType": "CALL",
      "contractName": null,
      "contractAddress": "0x6b175474e89094c44da98b954eedeac495271d0f",
      "function": "approve(address,uint256)",
      "arguments": [
        "0xf6cb30F1b333B511be23f6Fc0b733ed26030d6f7",
        "115792089237316195423570985008687907853269984665640564039457584007913129639935"
      ],
      "transaction": {
        "from": "0xf39fd6e51aad88f6f4ce6ab8827279cfffb92266",
        "to": "0x6b175474e89094c44da98b954eedeac495271d0f",
        "gas": "0x8f4a",
        "value": "0x0",
        "input": "0x095ea7b3000000000000000000000000f6cb30f1b333b511be23f6fc0b733ed26030d6f7ffffffffffffffffffffffffffffffffffffffffffffffffffffffffffffffff",
        "nonce": "0x43b",
        "chainId": "0xa179"
      },
      "additionalContracts": [],
      "isFixedGasLimit": false
    },
    {
      "hash": "0x26870724fad98bd14afaf72e98f4ca0440544a253a82091c27017b1d76d67ac3",
      "transactionType": "CALL",
      "contractName": null,
      "contractAddress": "0x1f9840a85d5af5bf1d1762f925bdaddc4201f984",
      "function": "approve(address,uint256)",
      "arguments": [
        "0x10F9509d401dedb0605616B89cfE26FA614084B7",
        "115792089237316195423570985008687907853269984665640564039457584007913129639935"
      ],
      "transaction": {
        "from": "0xf39fd6e51aad88f6f4ce6ab8827279cfffb92266",
        "to": "0x1f9840a85d5af5bf1d1762f925bdaddc4201f984",
        "gas": "0xfdd7",
        "value": "0x0",
        "input": "0x095ea7b300000000000000000000000010f9509d401dedb0605616b89cfe26fa614084b7ffffffffffffffffffffffffffffffffffffffffffffffffffffffffffffffff",
        "nonce": "0x43c",
        "chainId": "0xa179"
      },
      "additionalContracts": [],
      "isFixedGasLimit": false
    }
  ],
  "receipts": [
    {
      "status": "0x1",
      "cumulativeGasUsed": "0x67be",
      "logs": [
        {
          "address": "0x6b175474e89094c44da98b954eedeac495271d0f",
          "topics": [
            "0x8c5be1e5ebec7d5bd14f71427d1e84f3dd0314c0f7b2291e5b200ac8c7c3b925",
            "0x000000000000000000000000f39fd6e51aad88f6f4ce6ab8827279cfffb92266",
            "0x000000000000000000000000f6cb30f1b333b511be23f6fc0b733ed26030d6f7"
          ],
          "data": "0xffffffffffffffffffffffffffffffffffffffffffffffffffffffffffffffff",
          "blockHash": "0x45c5d14cee058f2cf43b8cd2111c2767ba43cf1c21d318ffbba4859cf086b007",
          "blockNumber": "0x134a326",
          "blockTimestamp": "0x66857f05",
          "transactionHash": "0x26f40f5bb261821ed2d9bc9a91b954b109df07ab76c22bf3b6c4a094153b0e7d",
          "transactionIndex": "0x0",
          "logIndex": "0x0",
          "removed": false
        }
      ],
      "logsBloom": "0x00000000000000000000000000000000000000000000000000000000000000000000000000000000000000000000000000000000000000000000000000200000000000000000000000000008000000000000000000000000000000000000000010000000000000000000000100000000000000000000000000000000000000000000000000000000000020000000000000000000000000000000000000000000020000000000000040000000000000000000000000000000000000000000000000000000000000200000000000000000000002002000000000000000000000000010000000000000000000000000000000000000000000000000000000000000",
      "type": "0x2",
      "transactionHash": "0x26f40f5bb261821ed2d9bc9a91b954b109df07ab76c22bf3b6c4a094153b0e7d",
      "transactionIndex": "0x0",
      "blockHash": "0x45c5d14cee058f2cf43b8cd2111c2767ba43cf1c21d318ffbba4859cf086b007",
      "blockNumber": "0x134a326",
      "gasUsed": "0x67be",
      "effectiveGasPrice": "0x3b9aca01",
      "blobGasPrice": "0x1",
      "from": "0xf39fd6e51aad88f6f4ce6ab8827279cfffb92266",
      "to": "0x6b175474e89094c44da98b954eedeac495271d0f",
      "contractAddress": null,
      "root": "0x0000000000000000000000000000000000000000000000000000000000000000"
    },
    {
      "status": "0x1",
      "cumulativeGasUsed": "0xb7c7",
      "logs": [
        {
          "address": "0x1f9840a85d5af5bf1d1762f925bdaddc4201f984",
          "topics": [
            "0x8c5be1e5ebec7d5bd14f71427d1e84f3dd0314c0f7b2291e5b200ac8c7c3b925",
            "0x000000000000000000000000f39fd6e51aad88f6f4ce6ab8827279cfffb92266",
            "0x00000000000000000000000010f9509d401dedb0605616b89cfe26fa614084b7"
          ],
          "data": "0x0000000000000000000000000000000000000000ffffffffffffffffffffffff",
          "blockHash": "0x870c4bde0b54d6fe246ac62c2357f4c9e2778a12217b76eae3694a18e7f30553",
          "blockNumber": "0x134a327",
          "blockTimestamp": "0x66857f06",
          "transactionHash": "0x26870724fad98bd14afaf72e98f4ca0440544a253a82091c27017b1d76d67ac3",
          "transactionIndex": "0x0",
          "logIndex": "0x0",
          "removed": false
        }
      ],
      "logsBloom": "0x00002000000000000000000000000000000000000000000200000000000000000000000000000000000000000000001000000000000000000000000000200000000000000000000000000000100000000000000000000000000000000000000008000000000000000000000100000020000000000000000000000000000000000000000000000000000000000000000000000000000000000000000000000000020000000000000000000000000000000000000000000000000000000000000000000000000000200000000000000000000000002000000000000000000000000010000000000000000000000000000000000000000000000000000000000000",
      "type": "0x2",
      "transactionHash": "0x26870724fad98bd14afaf72e98f4ca0440544a253a82091c27017b1d76d67ac3",
      "transactionIndex": "0x0",
      "blockHash": "0x870c4bde0b54d6fe246ac62c2357f4c9e2778a12217b76eae3694a18e7f30553",
      "blockNumber": "0x134a327",
      "gasUsed": "0xb7c7",
      "effectiveGasPrice": "0x3b9aca01",
      "blobGasPrice": "0x1",
      "from": "0xf39fd6e51aad88f6f4ce6ab8827279cfffb92266",
      "to": "0x1f9840a85d5af5bf1d1762f925bdaddc4201f984",
      "contractAddress": null,
      "root": "0x0000000000000000000000000000000000000000000000000000000000000000"
    }
  ],
  "libraries": [],
  "pending": [],
  "returns": {},
  "timestamp": 1720024840,
  "chain": 41337,
  "commit": "6a87790"
}